:020000040800F2
:20000000A0210020DD0100080D1F0008411D0008091F000889020008D525000800000000BA
:20002000000000000000000000000000EF010008E903000800000000F3010008971F00081A
:20004000F7010008F7010008F7010008F7010008F7010008F7010008F7010008F7010008A0
:20006000F7010008F7010008F7010008F7010008F7010008F7010008F7010008F701000880
:20008000F7010008F7010008F7010008F7010008F7010008F7010008F7010008F701000860
:2000A000F7010008F7010008F7010008F7010008F7010008F7010008F7010008F701000840
:2000C000F7010008F7010008F7010008F7010008F7010008F7010008F7010008F701000820
:2000E000F7010008F7010008F7010008F7010008F7010008F7010008F7010008F701000800
:20010000F7010008F7010008F7010008F7010008F7010008F7010008F7010008F7010008DF
:20012000F7010008F7010008F7010008F7010008F7010008F7010008F7010008F7010008BF
:20014000F7010008F7010008F7010008F7010008F7010008F7010008F7010008F70100089F
:20016000F7010008F7010008F7010008F7010008F7010008F7010008F7010008000000007F
:20018000F7010008F7010008F7010008F7010008F7010008F7010008F7010008F70100085F
:2001A000F7010008F7010008F7010008F7010008851F0008F7010008F7010008F701000893
:2001C000F7010008F7010008DFF80CD000F04AF80048004721260008A02100200648804766
:2001E00006480047FEE7FEE7FEE7FEE7FEE7FEE7FEE7FEE7FEE7FEE789250008C9010008F0
:2002000040EA01039B0703D009E008C9121F08C0042AFAD203E011F8013B00F8013B521EC2
:20022000F9D27047D2B201E000F8012B491EFBD270470022F6E710B513460A4604461946B2
:20024000FFF7F0FF204610BD30B504460020034600E05B1C934203D2E05CCD5C401BF8D065
:2002600030BD0000064C074D06E0E06840F0010394E8070098471034AC42F6D3FFF7A8FF8F
:20028000382700085827000801F0B2BEF0B521480168890312D4BFF34F8F0021BFF36F8FC5
:2002A000C0F83C12BFF34F8FBFF36F8F016841F400310160BFF34F8FBFF36F8F0168C90353
:2002C00026D40021016743F6E07CBFF34F8FC26EC2F34E31C2F3C9039A0701330CEA411570
:2002E00016461F4646EA050406F14046013FC0F84C42F7D14C1E00292146EFD1BFF34F8FEF
:20030000016841F480310160BFF34F8FBFF36F8FF0BD00BF14ED00E070B58B1C54084CB17B
:2003200033F8025C1E880433013C46EA054506683560F4E7D30701D1006805E022F00102B4
:20034000006831F812100180006870BD70B54B1C94083CB153F8016C05680433013C36BA36
:200360002E60F6E702F00303032B09D0022B14D0012B1BD122F00302895C0268117015E00E
:2003800022F00302541C8B5C02320C5D44EA032304682380895C217008E022F003028B5C93
:2003A0000132895C026841EA032111800068006870BD000010B501686FF00F02182308A459
:2003C00052FA81F2B2FBF3F35F2AE35C40F2FF3421EA040188BF0431C0E91613084610BD25
:2003E000000610160006101670472DE9F04FC1B091468A468046541801F006FD504621465E
:2004000001F0CEFE08B1012027E00DF1040B4F4646465546AFB13C46B7F5807F58463146D3
:2004200028BF4FF480742246FFF7EAFE58462946224601F096FF0028E5D13F1B2644254452
:20044000E8E701F0E1FC01F0F5FE404651464A46FFF7FAFE002818BF012041B0BDE8F08F4B
:20046000524A0329136823F4407313604FF4407338BF0B02116819431160116821F0F80139
:200480001160116841EAC00040F002001060106840F480301060BFF34F8F704700F1784128
:2004A000B1F5003F02D2C1F3C73070470E4A02F5003100EA01030D498B4201D1042011E0A9
:2004C00002400B48824204D00A48824203D1062008E0052006E001F520214FF0FF308A427B
:2004E00008BF0720C0B270470000FCFF0000020800000408000008082C490A6822F4407215
:200500000A600A6842F004020A600A6842EA002040F480300860BFF34F8F7047234A136824
:2005200023F44073136013681360136843F0010313600170BFF34F8F704700BF10B51B49CB
:200540000C6824F440740C600C6844F440740C600C6844F001040C6002604360BFF34F8F75
:2005600010BD00BF114A136823F440731360136843F480731360136843F00103136001801E
:20058000BFF34F8F704700BF084A136823F440731360136843F400731360136843F0010301
:2005A00013600160BFF34F8F704700BF103C024029480168890704D526498A6942F02002DA
:2005C0008A610168C90604D522498A6942F010028A610168890604D51E498A6942F008022B
:2005E0008A610168490604D51A498A6942F004028A610168090604D516498A6942F002022D
:200600008A61F22101607047F8B5044611480021114E816100F0ECFB0546671C3068C00312
:2006200009D5002FFAD024B100F0E2FB401BA042F4D90320F8BD306810F0F20F03D0FFF7FD
:20064000B7FF0120F8BD3068C00701D0012030600020F8BD800100200C3C0240FEB5016910
:20066000044601F17840B0F1094F01D9012245E04FF4005042F2040242F20C0300270858D4
:2006800020608D5842F208026560461E8A58A260B7EB165FCB58E36001D002222EE00135F4
:2006A000022D01D2032229E00132022A01D2042224E00522B3F1006F20D300F10165AB423D
:2006C0001CD84FF0FF320E4DCDE9010228464FF4006200F065F801A92846022200F039F8E5
:2006E000206842F208022169801A11448208284600F02FF86168421A18BF0622D0B2FEBD4B
:200700001001002010B51F2321FA03F4E40704D1013B5C1CF8D14FF0FF330124B4EBF20F1C
:2007200009D04FEAF204022C10D0032C05D1062B03D9012010BD0F2BFBD8006841618168A3
:2007400021F0180111438160002010BD072BF0D8F3E710B5037F04460220012B1FD06077D4
:2007600001202077206A012809D002280BD003280DD172B1236801C9013A1860F9E72046B6
:20078000FFF7E4FD07E02046FFF7C6FD03E0002001E020680068002121770121617710BD28
:2007A000B0B5037F04460220012B22D06077012020772068236A012B856845F001058560EB
:2007C00008D0022B0AD0032B0CD16AB108C90360013AFAE72046FFF7B9FD06E02046FFF770
:2007E0009BFD02E0002000E000680021217701216177B0BDB0B598B10446407F02250228EF
:200800000FD0657700252068816841F00101816001790571204600F03FF82577657700E09E
:2008200001252846B0BD000010B588B10446407F20B900202077204600F02FF802206077AA
:20084000207938B1D4E902122046FFF75BFF40B1012010BD20680F494161816821F018011B
:200860008160607908B1206901E04FF0FF302168D4E905230861886820F0600010438860BB
:20088000886820F080001843886001206077002010BD00BFB71DC1047047704770B504467B
:2008A000866D00F0A5FA054694F8350002281ED12068216C026822F016020260426922F0C9
:2008C0008002426109B9A16C19B1016821F008010160016821F0010101600068C0070DD08D
:2008E00000F086FA401B052814D82068F5E7002084F8340080206065012070BDE06D3F2180
:2009000001FA00F0B0600121002084F8340084F8351070BD20206065002084F83400032004
:2009200084F8350070BD90F83510022909D1052180F835100068016821F0010101600020BF
:2009400070478021416501207047B0B530B1054690F83500022803D102241BE0012419E036
:2009600028680024016821F001010160046044608460C4600461212141612846FFF71AFD12
:20098000E96D3F2202FA01F181606C6585F8344085F835402046B0BD80B509484FF0FF3155
:2009A0000022016102614161426101600260416042608160826000F07BFA002080BD00BFC1
:2009C00010380240F8B5204800F0F1FB01F0D2F900F0D0FFFFF7E0FFBFF34F8F1B4843F620
:2009E000E07CBFF36F8F016821F4003101600021C0F83C12BFF34F8FBFF36F8F0167BFF35A
:200A00004F8F016821F480310160BFF34F8FC26EC2F34E31C2F3C9039A0701330CEA4115D2
:200A200016461F4646EA050406F14046013FC0F86042F7D14C1E00292146EFD1BFF34F8F93
:200A4000BFF36F8FF8BD00BF3401002014ED00E02DE9F041DFF81481054698F81400012871
:200A600002D10220BDE8F081012088F814000C464CF25030FFF7C8FD58BB4FF0FF302060EA
:200A80003B4F286801280BD1287BFFF735FD4CF25030FFF7B9FD396821F00401396018E0BA
:200AA00068680646A968084486420FD2297B3046FFF7D6FC4CF25030FFF7A6FD396821F029
:200AC0007A01396020B968680136EBE7002000E02660002188F81410BDE8F081244801681A
:200AE00041F0004101600020704700BF2DE9F041DFF87880074698F81400012802D1022068
:200B0000BDE8F081012088F814001E4614460D464CF25030FFF778FD10BB032F17D8DFE81D
:200B200007F002070C11E1B22846FFF7F7FC0EE0A1B22846FFF716FD09E028462146FFF742
:200B400023FD04E0284622463346FFF7F7FC4CF25030FFF759FD06490A6822F001020A600F
:200B6000002188F81410BDE8F08100BF80010020103C02400648C168B1F1FF3FC4BF0120B1
:200B8000704704490160044901600020704700BF043C024023016745AB89EFCD2DE9F04F15
:200BA0008D4A4FF00A0A4FF0000E01264FF00F094FF0000800259042884A08BF4FF0090A17
:200BC00002444FEAB223092B38BF4FEAB22A844AA2F57E7B102D47D006FA05F20A423DD07F
:200BE0000323076803FA0EF46FF0030303EA550CA743076000EB0C0308F01C0709FA07F747
:200C00001E6ABE431E628368A3438360436893434360C368A343AC08C36008F00C0309FA01
:200C200003F75BF824600AFA03F33E409E424FF0010613D15BF82430D243BB434BF8243010
:200C4000674C236813402360636813406360A3681340A360634C23681A4022600EF1020E19
:200C600008F104080135B5E7BDE8F08F2DE9F84F594A4FF00A094FF0000E4FF0010A4FF051
:200C80000F084FF0000B9042544A08BF4FF0090902444FEAB223092B38BF4FEAB2290022B6
:200CA000102A00F096800AFA02F60C68344200F08A804F6847F01004122C11D16FF003038D
:200CC0000BF01C0403EA520508FA04F70544D5F820C00B692CEA0707A3403B432B624F6885
:200CE000032407F003030568122F04FA0EF403FA0EF325EA04056FEA040443EA0503036013
:200D000011D80AFA07F313F0061F0CD08368CD68234005FA0EF52B4383603B09456893404E
:200D2000B5432B434360C36823408C6804FA0EF42343C360FB0046D52B4C294F22F0030580
:200D4000BC463D44236843F480432360236803F480430093009F0BF00C03244F08FA03F41B
:200D600009FA03F3B846EF5927EA0404234345F808304FF00F08DCF800304D6843EA0604FA
:200D8000EF0358BF23EA0604CCF80040AF03DCF8043043EA060458BF23EA0604CCF8044008
:200DA000EF02DCF808300F4F43EA060458BF23EA0604CCF80840AD023B6843EA060458BFC7
:200DC00023EA06043C600EF1020E0BF1040B013266E7BDE8F88F00BF002402400000FEBFB8
:200DE000003C01400C3C01404438024008FCFFFF1B480068704700BFB0B5C0B10446006864
:200E00004CF6CC43D4E90112036045F25553036041608260FFF7ECFF05462068C16841B1BA
:200E2000FFF7E6FF401B3028F7D90320B0BD0120B0BDE16802698A4206BF4AF6AA21016085
:200E400001610020B0BD00684AF6AA2101600020704700000248016801310160704700BF3C
:200E60009C01002080B50748016841F400710160032000F05BF80F2000F006F800F019F83D
:200E8000002080BD003C024010B5044607484FF47A710068B0FBF1F000F03EFF4FF0FF305C
:200EA0002146002200F026F8002010BD000000207047704700280CD400F01F01012240099C
:200EC00002FA01F1034A42F82010BFF34F8FBFF36F8F704780E100E0002808D400F01F0121
:200EE0000122400902FA01F1014A42F82010704700E100E070B5134B4FF0FF351B68C3F33C
:200F00000223DC1E83F0070338BF0024042B28BF042305FA04F605FA03F3B2439943A1403D
:200F20001143BDE8704001F057BB00BF05494FF6FF030A681A4060F30A2203481043086060
:200F4000704700BF0CED00E00000FA05BCB51848184D016841F080510160006800F0805019
:200F600001900198286840F480302860FFF740FF04466868C00306D4FFF73AFF001BB0F570
:200F80007A7FF6D90FE0286840F400302860FFF72FFF04466868800307D4FFF729FF001B49
:200FA000B0F57A7FF6D90320BCBD0020BCBD00BF40380240007000407CB50446FFF718FFDE
:200FC000054694F8410080074FF0000020D584F840002068016849070BD5016821F00401E2
:200FE0000160E06BFFF75AFC18B1606C40F0040060642068A16C2B460226026842F002029E
:201000000260009120460221012201F081F900B17CBD2068A16C00222B46C6600091204697
:20102000202101F075F90028F2D1012084F8410000207CBD7047000080B590F84110890799
:2010400021D5002180F84010082180F8411001680A6822F4F8120A600A6852070AD402208F
:20106000C860086840F400300860086840F00200086008E0C06BD94A02650A6822F00402DB
:201080000A60FFF750FC002080BD00BF2DE9FC411D46174688460446FFF7AAFE064694F8E7
:2010A0004000012802D10220BDE8FC81012084F8400094F84100012832D1002060642021B5
:2010C00000223346422084F841000095204601F01FF930BB206897E80E1081624262C36296
:2010E000C8F828C03969026822F4400211434FF0006241F4800101602046414600F088FF74
:20110000204608210122334600950825012701F0FFF830B92068C560002084F8417000E00F
:201120000220002184F84010BDE8FC817047F8B515460F460446FFF75BFE064694F84000B9
:20114000012801D10220F8BD012084F8400094F841100220012921D10021616484F8410022
:201160002046002233460095202101F0D1F8A8B920463946002200F04BFF786A20B1012068
:2011800084F84100002009E0204602210122334600950225012701F0BBF818B1002184F876
:2011A0004010F8BD2068C56084F84170EAE710B50446006828B194F84010012903D1022033
:2011C00010BD012010BD012184F84010016821F00101016000F0A6F90020606484F8410059
:2011E00084F8400010BD70477047000010B5016804468A680868530718D510F4802315D04B
:2012000094F84100122838D108468268520763D5E26A002A5CD0606A421C6262007881F876
:2012200020002068E26A013AE262EEE7930739D510F4003336D00220C860086820F4E020B3
:20124000086094F8410012284BD10868400709D5086820F004000860E06B0068016821F055
:20126000010101602046FFF7E7FE012084F841002046BDE8104000F0F1BA94F841002228DF
:201280002AD108468268520726D5A26B02B391F82000226B531C236310702068A26B013A8A
:2012A000A263EFE7130725D510F4002322D00820C8600868400206D5086820F4102008602D
:2012C000012084F841002046BDE8104000F066BA016821F4802101602046BDE81040FFF7F4
:2012E00083BF94F84100222815D1086840072ED4084650E0D30718BF10F4803317D1D20650
:201300003ED510F480103BD01020C8602046BDE8104000F044BA94F84100022822D101206F
:2013200084F841002046BDE81040FFF7FFBE0120C8600A6822F470220A60626C42F0020211
:2013400062640A68520738D484F8410013E0086820F004000860E06B0068016821F0010125
:2013600001601FE094F84100082809D1012084F84100606C60B32046BDE81040FFF733BF36
:2013800010BD91F82000226B531C236310702068A26B013AA263806810F4F85F1CBFA06BD7
:2013A0000028EED12046FFF747FE012084F841002046BDE8104000F0F0B9E06B074A0265D0
:2013C0000A6822F004020A60BDE81040FFF7ABBA2046BDE81040FFF72DBE00BF6F21000836
:2013E0002DE9FC410446FFF703FD3CB1054694F84000012805D10220BDE8FC810120BDE84D
:20140000FC81012084F8400094F8410008B1A06C08E0002084F84000204600F0BDF841F2DE
:201420008830A0642168A2686FF0FF034FF0000803EB02220B6823F4F8531A430A60009077
:20144000204620212B46002200F062FF08BBD4E90012D4E90335114E0F683E40334343EA83
:201460000262E3691A43236A1A430A600C4B4A681A4063691A43A36942EA05421A434A60F9
:201480000A6842F001020A60C4F84480012184F8411084F84080BDE8FC8100BF2FFFFF0082
:2014A000FEF8E0FF7CB516460D460446FFF7A0FC034694F84000012801D102207CBD01200F
:2014C00084F8400094F84100012826D10020606420210022822084F84100A06C00902046BB
:2014E00000F016FFD0B9206871680829026822F0080242EA0102026007D1316801631021AF
:20150000C160016841F480110160204629464FF0406200F07DFD002000E00220002184F83B
:2015200040107CBD70B54620FFF7C4FC5C20FFF7C1FC154815490160FFF707FA644C144E8D
:201540004021A4F580552846B04728460421B04720464FF48071B04720464FF40071B0472B
:2015600020468021B04720464021B0470948016841F002010160016821F002010160016A17
:2015800021F00201016270BDAC000020B86402409D0B0008183802402DE9F04786B04B4825
:2015A0004B4C01AD4B4F4FF00A094FF04008A4F58056816841F002018160816801F0020129
:2015C0000191019950F8181C41F0020140F8181C50F8181C21F0020140F8181C016841F02D
:2015E00002010160016801F0020101910199016841F002010160016801F002010191019977
:20160000016841F020010160016801F0200101910199016841F020010160016801F0200170
:2016200001910199016841F020010160016801F0200101910199016841F020010160006837
:20164000294600F0200001900198CDF81490CDF8048003200490012003900220029030469A
:20166000B8470020039029464FF0090ACDF814A0042001903046B8474FF480700190294621
:20168000CDF814902046B8474FF4007001902946CDF814902046B847802001902946CDF896
:2016A00014A02046B84720462946CDF814A0CDF80480B8475C200F210022FFF71BFC5C2024
:2016C000FFF70AFC06B0BDE8F08700BF30380240001402406D0C00082DE9FC411546884680
:2016E0000446FFF785FB27680646B86994F84010012902D10220BDE8FC81012184F8401023
:2017000094F8411001292AD1B8F1000F4FF00001616426D0222184F841100122396901310D
:20172000A163396901316163796962F39B617961C4F83080B861A06BC8B120460621012247
:201740003346009500F0E4FDF8B997F82000216B4A1C22630870A06B0138A063EBE7022020
:2017600016E0606C40F008006064012010E020460221012233460095022500F0C9FD20B92A
:201780002068C5602046FFF717FC012184F84110002184F84010BDE8FC817047704770470A
:2017A0002DE9FC41154688460446FFF721FB0646276894F84000012802D10220BDE8FC816A
:2017C000012084F8400094F84100012828D1B8F1000F4FF00000606424D0122084F841009F
:2017E00038690130E06238690130A062C4F82480786920F040607861E06AC8B120460421E9
:2018000001223346009500F083FDF8B9606A411C6162007887F82000E06A0138E062EBE7DE
:20182000022016E0606C40F008006064012010E020460221012233460095022500F068FD81
:2018400020B92068C5602046FFF7B6FB012184F84110002184F84010BDE8FC817047000040
:201860002DE9F04100285CD0534B04460D46D3F8000400F00F0088420CD2D3F8000420F03D
:201880000F002843C3F80004D3F8000400F00F00A84246D12068810705D5A1689A6822F039
:2018A000F00211439960C00735D1D3F8000400F00F00A8420CD9D3F8000420F00F00284326
:2018C000C3F80004D3F8000400F00F00A84228D12068410705D5E1689A6822F4E052114307
:2018E0009960000706D52069996821F4604141EAC00098601C4600F069F8A1681C4AC1F314
:201900000311515CC840304908600F20FFF7BCFA0020BDE8F0816068012805D11968890338
:201920000AD40120BDE8F0811968022802D18901F7D501E08907F4D59968984621F0030190
:2019400008439860FFF754FA064641F288376068D8F80810434601F00C01B1EB800FA4D0EC
:20196000FFF746FA801BB842F1D90320BDE8F08128270008E648114B016841F0810101603B
:201980000021816002681A40026041600C4B42681A434260C0F884100A4BD0F884201A4314
:2019A000C0F88420026822F480220260C160064818490160704700BF00380240FFFFF6FA38
:2019C0001030002400300020000000201049486800F00C020F48082A03D0042A17D10E4864
:2019E00070470A680B685B020B4B58BF034602F03F000A68B3FBF0F0C2F3881209685043B4
:201A00000222C1F3014102EB4101B0FBF1F07047043802400024F40000127A002DE9FC41C5
:201A2000002854D004460078B94EC00724D0B06800F00C0004281AD0B06800F00C00082868
:201A400002D17068400212D46068002800F0F080B0F5803F07D03168B0F5A02F40F01C814E
:201A600041F480203060306840F480301AE13068800301D5606850B32078800718D5B068AA
:201A800010F00C0F07D0B06800F00C00082842D1706840023FD43068800702D5E068012869
:201AA00015D12069316821F0F80141EAC0003060207800070ED4207840071DD4A769002F09
:201AC00000F02381B06800F00C00082869D10120BDE8FC81706F616981B340F001007067CC
:201AE000FFF786F90546706F8007E4D4FFF780F9401B0228F7D9E2E0306CC0002DD4306C89
:201B00004FF0010840F080503064306C00F080500190019823E03068E168002960D040F0F6
:201B200001003060FFF764F9054630688007B8D4FFF75EF9401B0228F7D9C0E020F0010078
:201B40007067FFF755F90546706F8007B3D5FFF74FF9401B0228F7D9B1E04FF000086D4F0A
:201B60003868C0050FD4386840F480703860FFF73FF905463868C00505D4FFF739F9401B87
:201B80006428F7D99BE0A068D8B3012805D0316F052863D141F004003067306F40F0010040
:201BA00062E0306820F080703060FFF721F90546022F0AD13068800140F18480FFF718F9FF
:201BC000411B03200229F5D99DE03068800140F19C80FFF70DF9411B03200329F5D392E0C9
:201BE00020F001003060FFF703F90546306880077FF55EAFFFF7FCF8411B03200229F5D905
:201C000081E0306F20F001003067306F20F004003067FFF7EDF8054641F28837306F800794
:201C200031D5FFF7E5F8411B0320B942F6D96AE0306820F480303060306820F48020306070
:201C4000FFF7D6F80546306880037FF515AFFFF7CFF8411B03206429F5D954E021F0010045
:201C60003067306F20F004003067FFF7C1F8054641F28837306F800705D4FFF7B9F8401B96
:201C8000B842F7D91BE0B8F1000F3FF417AF306C20F08050306411E721F4803030603068D9
:201CA00020F480203060FFF7A3F80546306880033FF5E2AEFFF79CF8401B6428F6D90320C2
:201CC000BDE8FC811C341FCC0843D90340EA82104FF6FF72914340EA0460A1F5803108431A
:201CE00040F000507060306840F080703060FFF77FF804463068800107D4FFF779F8011B1E
:201D000003200229F6D9BDE8FC810020BDE8FC810038024000700040411E0020B0EB116F7E
:201D200001D001207047044AF023516003490B70906007211160704710E000E023ED00E021
:201D400000F056B980688968002381EA0002B3EB126F01D00120704721F07F4120F07F40B3
:201D6000884201D1022070474FF0000088BF03207047000010B5084C206A20F48050206285
:201D80001548FEF737FD206840F480502060206820F48050206010BD10380240E0B50D4983
:201DA0000322086840F4805008600B4802620022C0E905228280A1F503620260096801F4B4
:201DC000805101910199FEF72FFD00B98CBD00F00FF900BF303802401001002080B50848CC
:201DE0000849042240F8041F40F6FF71C0E90121C160FFF701F800B980BD00F0F9F800BFFA
:201E00005C00002000300040F8B5774F774C482100263D46201D05F81C6BFEF70AFA284666
:201E20003821FEF706FA381D1821FEF702FA354820602046FFF7BBF94FF48070172110222B
:201E400004230225C4E90153C4E90321C4E90506C4E907662046FFF7C3FA20688168890677
:201E6000FCD442F26611416100218161C1610161BFF34F8F206881688906FCD442F2991180
:201E8000416100218161C1610161BFF34F8F206881688906FCD442F2662141610021816159
:201EA000C1610161BFF34F8F206881688906FCD442F29921416100218161C1610161BFF375
:201EC0004F8F206881688906FCD442F26631416100218161C1610161BFF34F8F206881685F
:201EE0008906FCD442F29931416100218161C161016141F28830BFF34F8FBDE8F84000F014
:201F00004DB800BF001000A000F072B87047F0B585B00D4606460020049000900221144642
:201F200003912846FEF7BAFA074601906019FEF7B5FAC01B01300290FEF71CFE684604A9F3
:201F4000FEF786FD08B1049818E00027A7420AD2F259E91902200023FEF7C8FD0437002821
:201F6000F4D001200AE0FEF7B9FD304629462246FEF76AF90490002818BF0120C0B205B067
:201F8000F0BD0000E148FFF731B900BF80B51421FEF74FF980BDFEF75DBF7047B0B5DA4A97
:201FA000034600204FF080714FF48074102542F8040FC2E91100D064C2E90B04C2E90D006D
:201FC000D1630121C2E90115C2E9031005204FF480045461114641F8180FCC48FFF756F87C
:201FE000002818BF0120B0BD0800002034010020FEF7E8FC8E480430FEF725FF00F0FEFAF3
:2020000060270000BD39344001072235000000082DE9F0414B6AB2F1406F18BF002B03D045
:2020200004688D6A013D25618C690D6A7CB3002D49D0D0F800C0CE698F68D1E904E82B43CE
:20204000002ECCF81C70D1E90B57486B43EA050343EA070340EA030040EA884040EA0E036D
:202060004BD044EA0200CC68B2F1406F40EA060040EA03000B6840EA040040EA0300CCF8A0
:20208000140072D04868CCF81800BDE8F081EDB3006801F12C07CC698E68D1E904CE2B43F6
:2020A000002CC661E0CF43EA050343EA060343EA070343EA8E4343EA0C0341D01443234374
:2020C000CC68234334E0D1E90B76D1F814C04D6BD1F81CE03B43BEF1000F43EA060343EA5E
:2020E000050343EA8C432ED01443CD6844EA0E0423430C682B43234319E044EA02000968CA
:2021000018430843CCF81400BDE8F081CC69FCB11343D1E90B674D69D1F80CC023434C6B5F
:2021200033433B43234343EA854343EA0C030068B2F1406F436118D049688161BDE8F08125
:2021400043EA020110E0224309681A4311430AE05BB11A43D1E90B454B69496B22432A4341
:20216000114341EA834100684161BDE8F081806B00218163C16290F8411008290BD100689B
:202180000221C160016841F400310160016841F0020101607047012180F84110FFF723B85A
:2021A0002DE9F04F8FB00C464FF6FF714FF400594FF0000A1C4DDFF83CB301AEDFF86C80FE
:2021C00020EA0107A7422AD84FF480600890CDF81090D8200190CDE909AACDF838A0CDE99D
:2021E0000CAA4FF48070CDE906A007EA0500029000F00EF988B95846314641F28832FEF7E3
:2022000096FF50B940F6B830FFF7C8FE28B94046FEF719FE07F58037D4E7012000E0002044
:202220000FB0BDE8F08F00BF0000FF0F600000205C000020FEB5924C0020217800295DD151
:20224000214685224FF08073012541F81C2F4FF480724863C1E90502C1E90700C1E909356A
:20226000C1E90B00A34841F28832FEF760FF002843D1A0480DF10B0141F28832FFF72CFA46
:20228000D8BB00F0C5F8C0BB9DF80B100A2041F2883260F31F118DF80B108120214641F858
:2022A0001C0F9448FEF743FF38BB92480DF10B0141F28832FFF774FAF8B92146EB204FF452
:2022C00000524FF480734FF440654FF040760A2741F81C0F00200190C1E90B00486348604B
:2022E000C1E90320C1E90573C1E90750C1E9096080486A46FFF7D6F808B10120FEBD0120E9
:2023000020700020FEBD00BF08000020340100202DE9F843DDF82090984616460F46044667
:2023200009F1010520688068384018BF0120B04214D0002DF6D0B9F1000F05D0FEF758FD1C
:20234000A0EB08004845EDD9042084F84100606C40F0010060640120BDE8F8830020BDE8EF
:20236000F8832DE9F8430446C8B217460D465FFA82F8160AE0B1C0F5807946B328464946F5
:20238000224600F07FF8E8BBA7EB09004C444D44C7B2060A7EB328464FF48071224600F05B
:2023A00071F878BB013E04F5807405F58075F1E716B3D6B128464FF48071224600F062F8EA
:2023C00000BB013E04F5807405F58075F1E7C84512D928464946224600F054F809EB0500BD
:2023E000A8EB090104EB090209E0B8F1000F0CD02846414602E047B128463946224600F0B5
:2024000041F810B10120BDE8F8830020BDE8F883B0B51B4C0620002541F28832214641F89D
:202420001C0F4FF48070C1E90B554D63C1E905503048C1E907554D62FEF779FE0146012084
:2024400001B1B0BD052144F81C1F4FF080721023C4E909204FF48002022144E9051344E92C
:20246000030544F8042C234841F28833224642F8181D2146FEF70AFE002818BF0120B0BDC7
:202480000800002010B58EB014464FF44062079220F07040122200924FF4807206924FF4A3
:2024A000005203924FF04072099200220892CDE90C22CDE90A1205920190FFF7A9FF68B950
:2024C0000C48694641F28832FEF731FE30B90948214641F28832FFF763F910B101200EB068
:2024E00010BD41F28830FFF759FD002818BF0120F5E700BF340100201CB5044600680949F3
:202500000840B0F1005F0BD1FEF75CFA60680190054801990160216881F3088800688047EF
:202520001CBD00BF0000FC2F0C01002080B592B0C8210220CDE90B000A91042109914FF4CB
:202540008001CDE907014FF4803002900120019001A8FFF763FAA8B9FEF7F8FC90B94FF433
:202560008050119006214FF4A050109000200F9002200E900F200D900DA8FFF771F908B9CF
:2025800012B080BDFFF734FD10B50E480F4CD0F8801041F47001C0F880100B490A6842F061
:2025A00001020A6000228A600B6823400B60084B4B600B6823F480230B60CA604FF0006101
:2025C000016010BD08ED00E000380240FFFFF6FE10300024FFF70CBD10B500F00F03064C50
:2025E000044AB0F1FF3F2344C8BF83180801187010BD00BF00E400E014ED00E00648BFF363
:202600004F8F064A016801F4E06111430160BFF34F8F00BFFDE700BF0CED00E00400FA056A
:20262000FDF734FEFEF71EFCFFF780FFFFF7D6FBFFF7B4FBFFF7E8FBFFF7FCFD304C04F14B
:2026400014063046FFF7A2FC04F128073846FFF79DFC2C4D05F56020A0632B486062804634
:202660003046FDF7FBFF20703846FDF7F7FF607030463946FFF766FBE07090B1207898B36E
:2026800004F13C063046FFF781FC3046E564FDF7E5FFA07008B3607820BBA26AD4E90D101F
:2026A0001EE06269606A2946FDF79FFE30BBFFF7ABFBFFF7BFFD251D2846FEF7C4FBA26ADE
:2026C000D4E90D10FFF723FCC0B9FFF79DFBFFF7B1FD2846FEF7B7FB04E0E26BD4E912103B
:2026E000FFF715FC207810B9206AFFF705FF4046FFF702FF201DFEF7A6FBFEE7FFF778FC4F
:202700005C0000200000E2900000010802E008C8121F08C1002AFAD17047002001E001C1A7
:20272000121F002AFBD17047000000000000000001020304060708095827000800000020EC
:20274000080000000C2700086027000808000020982100001A2700080024F4000000000065
:020000040801F1
:2000000078A50320DD010108711C020829F90108691C02084914010889A1020800000000CE
:20002000000000000000000000000000EF010108F11F010800000000F3010108416E0208F8
:20004000F7010108F7010108F7010108F7010108F7010108F7010108F7010108F701010898
:20006000F7010108F7010108F7010108F7010108F7010108F7010108F7010108F701010878
:20008000F7010108F7010108F7010108F7010108F7010108F7010108F7010108F701010858
:2000A000F7010108F7010108F7010108F7010108F7010108F7010108F7010108F701010838
:2000C000F7010108F7010108F7010108F7010108F701010869A1020879A10208F7010108E2
:2000E000F7010108F7010108F7010108F7010108F7010108F7010108F7010108F7010108F8
:20010000F7010108F7010108F7010108F7010108F7010108F7010108F7010108F7010108D7
:20012000F7010108F7010108F7010108F7010108F7010108F7010108F7010108F7010108B7
:20014000F7010108F7010108F7010108F7010108F7010108F7010108F7010108F701010897
:20016000F7010108F7010108F7010108F7010108F7010108F7010108F70101080000000078
:20018000F7010108F7010108F7010108F7010108F7010108F7010108F7010108F701010857
:2001A00031100208F701010879290108F7010108F92F0208F7010108F7010108F701010812
:2001C000F7010108F7010108DFF80CD000F096FB00480047D9BC020878A503200648804766
:2001E00006480047FEE7FEE7FEE7FEE7FEE7FEE7FEE7FEE7FEE7FEE701700208C90101082A
:20020000002800DA4042704710B5441A0346944209D28318114403E011F8014D03F8014D13
:20022000521EF9D210BD40EA0104A40703D009E010C9121F10C3042AFAD203E011F8014B11
:2002400003F8014B521EF9D210BDD2B201E000F8012B491EFBD270470022F6E710B51346BE
:200260000A4604461946FFF7F0FF204610BD421C10F8011B0029FBD1801A704710B50022BE
:2002800000E0521C835C8C5CA34201D1002BF8D1D8B2E1B2401A10BD30B5044600200346C2
:2002A00000E05B1C934203D2E05CCD5C401BF8D030BD034611F8012B00F8012B002AF9D132
:2002C000184670472DE9FE4F804681EA0300C00F0C46009021F0004123F00045B8EB020072
:2002E000A94105D24046214690461C460B46024623F00040104347D0270DC7F30A00C3F314
:200300000A510290401A019040286BDAC3F3130040F4801B0098924620B10023D2EB030A92
:2003200063EB0B0B01985946C0F14002504600F0D8F906460D4650465946019A00F0F0F98F
:2003400010EB08006141002487EA115284EAE7731A4340D0009A62B3019A012A4FEA0752C4
:2003600015DC001B61EB02014FF0004202EA0752CDE90042001C41F5801132462B4600F0A8
:2003800027FA03B0BDE8F08F40462146F9E7001B61EB0201001C41F5801300185B4120185D
:2003A000A2F5001747EB030140EAD570B6196D4111E06D084FEA360645EAC0754FEA07529C
:2003C000001B61EB0201001C41F5801149084FEA30000019514132462B4603B0BDE8F04FEB
:2003E00000F0E7B90098012240000023D0EB020263EBE073009821464FEAE074B8EB0000C0
:2004000061EB0401E9E783F000435BE781F0004158E72DE9FE4F81EA030404F0004421F0B4
:20042000004100944FF0000B23F0004350EA01045ED052EA03045BD0C3F30A54C1F30A5545
:200440002C44A4F2F3340194A0FB0254C1F3130141F48011C3F3130343F4801301FB024483
:2004600000FB034E840A970A44EA815447EA8357A4FB076802958D0A05FB07854FEA932C33
:2004800004FB0C542705029D4FEA065847EA1637B5EB08056EEB070C870E920E47EA811706
:2004A00042EA8312A7FB0201B6EB0B0164EB00042B0D43EA0C335E1844EB1C50DA4651466A
:2004C000E7FB0201C5F313044FEA0B3343EA14534FEA0432019C43EA0603A4F10C040294E0
:2004E000009CCDE900B400F073F903B0BDE8F08F00200146F9E72DE9F04D81EA030404F0C3
:20050000004B21F0004514464FF0000A23F0004150EA050220D054EA01021DD0C5F30A57CB
:200520000246C5F31303C1F31300C1F30A5640F4801543F48013A7EB0608101BD64608F256
:20054000FD3873EB050002D308F1010801E092185B41B8F1000F03DA00200146BDE8F08DE7
:2005600000204FF48011064684460EE0171B73EB050705D3121B63EB050306434CEA010C00
:2005800049084FEA300092185B4150EA0107EDD152EA030012D082EA040083EA050108430C
:2005A00005D0101BAB4106D20122002306E000224FF0004302E06FF0010253101AEB0600F5
:2005C0004CEB085110EB0A0041EB0B01BDE8F04D00F0EFB80EB5C10F80EAE0700844CA076B
:2005E000002140F233438DE80E000A460B4600F0EFF803B000BD00F0004230F000400AD05B
:20060000C10D01F56071C0F3160042EA0151C20840071143704700200146704701F0004390
:2006200030B421F0004150EA010206D00A0DA2F56072C1F31301002A02DC30BC002070475E
:20064000440F44EAC104C100E01830BC00EBC25000F078B830B50B4601460020202201248E
:2006600009E021FA02F59D4205D303FA02F5491B04FA02F52844151EA2F10102F1DC30BD8C
:200680002DE9F05F0546002092469B4688460646814640241BE0284641464746224600F0B7
:2006A0002FF853465A46C01A914110D311461846224600F016F82D1A67EB01084F46224691
:2006C0000120002100F00DF817EB00094E41201EA4F10104DFDC484631462A464346BDE813
:2006E000F09F202A04DB203A00FA02F1002070479140C2F1200320FA03F31943904070478A
:20070000202A04DB203A21FA02F00021704721FA02F3D040C2F1200291400843194670474A
:20072000202A06DBCB17203A41FA02F043EAE07306E041FA02F3D040C2F12002914008438E
:20074000194670470029A8BF7047401C490008BF20F00100704710B4B0FA80FC00FA0CF028
:2007600050EA010404BF10BC704749B1CCF1200421FA04F411FA0CF118BF01212143084356
:20078000A3EB0C01CB1D4FEA00614FEA102042BF002010BC704700EBC35010440029A4BF51
:2007A00010BC7047401C490008BF20F0010010BC704710B5141E73F1000408DA401C41F1E7
:2007C000000192185B411A4301D120F0010010BD2DE9F04D92469B4611B1B1FA81F202E0F7
:2007E000B0FA80F220329046FFF77BFF04460F4640EA0A0041EA0B0153465A46084313D0D4
:20080000114653EA010019D0C8F140025046FFF777FF05460E46504659464246FFF761FFAB
:20082000084305D0012004E020463946BDE8F08D0020054346EAE0762C4337430A986305AB
:20084000E40AA0EB08000022FD0A44EA47540A3002D500200146E9E7010510196941DDE93E
:20086000084500196941BDE8F04DA2E7C1F30A52C1F3130140F2FF3341F480119A4202DA43
:2008800000200146704740F233439A42A2F2334202DC5242FFF734BFFFF723BF30B5041E73
:2008A00071F1000404DB4FF00044404264EB0101141E73F1000405DB1C464FF000435242AB
:2008C00063EB04038B4208BF824230BD30B5041E71F1000404DB4FF00044404264EB0101DC
:2008E000141E73F1000405DB1C464FF00043524263EB0403994208BF904230BD064C074DAA
:2009000006E0E06840F0010394E8070098471034AC42F6D3FFF75CFCAC260B08DC260B08D0
:2009200070B58C1810F8015B15F0070301D110F8013B2A1106D110F8012B03E010F8016BC8
:2009400001F8016B5B1EF9D12B0705D40023521E0DD401F8013BFAE710F8013BCB1A921C83
:2009600003E013F8015B01F8015B521EF9D5A142D8D3002070BD000080B58CB006A804900C
:2009800018F026FD0B900B9818F066FD08B9FFE7F4E007F005FD41F69051C2F201010968D0
:2009A000401AB0F5AC7F40F2E980FFE707F0F8FC41F69051C2F20101086040F2C470C2F251
:2009C00001000078C007002848D0FFE740F2C471C2F20101002008700A908DF82700FFE7D0
:2009E0009DF82700092825DCFFE748F64C50C2F20100039006F008FC03980A2106F078FBD8
:200A0000039806F011FB01469DF8272041F69C50C2F2010020F812109DF8271030F81110EF
:200A20000A9808440A90FFE79DF8270001308DF82700D5E70A984CF6CD41CCF6CC41A0FB97
:200A40000110C0080A90BDF8280012F041FB41F69450C2F2010080ED000AFFE748F64C5001
:200A6000C2F20100029006F0CFFB02980A2106F03FFB029806F0D8FA41F69851C2F2010142
:200A80000B6841F69C52C2F2010222F813000868013008600A2807D3FFE741F69851C2F20B
:200AA000010100200860FFE7002008908DF81F00FFE79DF81F00092812DCFFE79DF81F1007
:200AC00041F69C50C2F2010030F81110089808440890FFE79DF81F0001308DF81F00E8E733
:200AE00008984CF6CD41CCF6CC41A0FB0110C00808900898642805D3FFE70898B0F57A6F13
:200B00000BD9FFE70B9800210191012218F0B4FD01990B9818F08CFD2FE00B980121002215
:200B200018F0AAFDBDF8200012F0D2FA049981ED000A41F69450C2F2010090ED001A91ED69
:200B4000000A9FED0F2A20EE020A9FED0E2AA1EE020A80ED000A90ED000AB2EE041A20EE83
:200B6000010ABDEEC00A10EE100AADF816000B98BDF9161018F05CFDFFE7FFE70CB080BD7D
:200B8000CDCCCC3D6666663F81B0009042F20431C4F20101086820F44030086000984268C2
:200BA00008681043086000980168486820F480704860009801680269486840EA022048609D
:200BC00000980168486820F04070486000980168826848681043486000980168886820F461
:200BE0000060886000980168C2688868104388600098806A0121C0F60071884219D0FFE7F3
:200C000000980168886820F07060886000980168826A88681043886000980168886820F002
:200C20004050886000980168C26A8868104388600CE000980168886820F0706088600098A7
:200C40000168886820F040508860FFE700980168886820F002008860009801688269886806
:200C600040EA420088600098006AC8B1FFE700980168486840F40060486000980168486821
:200C800020F46040486000980168426A4EF20000CFF6FF7000EB423248681043486006E0E7
:200CA00000980168486820F400604860FFE700980168C86A20F47000C86200980168C26974
:200CC0000020CFF6F07000EB0252C86A1043C86200980168886820F4007088600098016883
:200CE000026B886840EA4220886000980168886820F480608860009801684269886840EA90
:200D00008220886001B0704780B586B004908DF80F1002928DF80730049890F8420420283C
:200D200004DBFFE700208DF8170032E09DF80F00049991F8412402EB021201F81200049849
:200D400090F8411401EB011100EB4100013002999DF80720FFF758FA9DF80700049991F8FA
:200D6000412402EB021201EB420181F82100049991F84104013000F01F0081F8410404993E
:200D800091F84204013081F8420401208DF81700FFE79DF8170006B080BD00000000000052
:200DA00080B549F6D810C2F201000068D8B1FFE747F63450C2F201004068A0B1FFE710F0F6
:200DC0002FFD49F6D810C2F20100006847F63451C2F201014968014411F0C6FD10F020FD54
:200DE00011F032FEFFE705F08FFE80BD0000000080B584B00390029102984068C0780628E6
:200E000018D1FFE7029840680178407840EA0120ADF806000298406880780138B0FA80F00D
:200E200040098DF80500BDF806009DF805100FF0D7FDFFE7012004B080BD000000000000AF
:200E400010B588B0079000200090069041F63C61C2F201010391012202920A6010230193B2
:200E60004B608A60C86049F68C10C2F2010005904FF6FF7204920BF0FBFD029806F020FFA2
:200E8000009BDDF808C00399049A0598DDF804E002240C60C1F804E0C1F808C0CB600BF0B4
:200EA000E7FD009BDDF804C00399049A05984FF0030EC1F800E0C1F804C04FF0080CC1F8D1
:200EC00008C0CB600BF0D4FDDDF804C0029B0399049A05984FF4087ECDF818E04FF0040E6F
:200EE000C1F800E0C1F804C08B60069BCB600BF0BFFD059807990BF097FD08B010BD00001D
:200F000080B598B017901691FFE743F63800C4F20200016841F001010160006800F00100A1
:200F200010901098FFE7FFE743F63000C4F20200016841F480010160006800F480000F9081
:200F40000F98FFE7FFE743F63000C4F20200016841F001010160006800F001000E900E9863
:200F6000FFE7FFE743F63000C4F20200016841F004010160006800F004000D900D98FFE700
:200F8000FFE743F63000C4F20200016841F008010160006800F008000C900C98FFE7FFE7DA
:200FA00043F63000C4F20200016841F010010160006800F010000B900B98FFE7FFE743F659
:200FC0003000C4F20200016841F020010160006800F020000A900A98FFE7FFE743F6300024
:200FE000C4F20200016841F040010160006800F0400009900998FFE74FF63F0011900220FE
:20100000029012900020079013900320069014900C200390159041F20040C4F2020011A99C
:20102000049106F095FFDDF808C003980499069A079B4FF0800ECDF814E0CDF844E0CDF846
:2010400048C01393149215900020C4F2020006F07FFFDDF808C003980499069A079B4FF0F5
:20106000300ECDF844E0CDF848C013931492159040F60000C4F2020006F06AFFDDF808C0A1
:2010800003980499069A079B48F2331ECDF844E0CDF848C013931492159041F60000C4F2B7
:2010A000020006F055FFDDF808C003980499069A079B4FF6837ECDF844E0CDF848C013932B
:2010C0001492159041F20000C4F2020006F040FFDDF808C003980499069A079B4CF2037ECF
:2010E000CDF844E0CDF848C013931492159040F60040C4F2020006F02BFF059B069A07981C
:2011000041F6B051C2F20101089148608B604FF40073CB604FF480630B614FF480534B6180
:201120004FF480438B61C8614FF400330B6248628A62C862086346F21040C4F202000860DE
:20114000FFE7179841F6B051C2F20101016317988863FFE741F6B050C2F20100009006F0B6
:201160007BFC009806F0C8FC382001900F21002208F06AFE019808F05BFE18B080BD00001C
:2011800080B590B00F9000208DF83B004AF24850C2F201000068016941F6C060C2F20100F4
:2011A000007888470F9908700F980078002800F03581FFE700200290FFE702980F9909789A
:2011C000884280F02A81FFE74AF24850C2F201000068436941F6C060C2F201000078DDF84E
:2011E00008C007A901EB4C010DF1120202EB4C0298474AF24C50C2F201000078012811D102
:20120000FFE7029A07A830F812000CA921F81200029A0DF1120030F812000DF1260121F85F
:201220001200FFE74AF24C50C2F201000078800700280AD5FFE7029A07A830F81200C0F503
:2012400080500CA921F81200FFE74AF24C50C2F201000078400700280CD5FFE7029A0DF123
:20126000120030F81200C0F580500DF1260121F81200FFE74AF24C50C2F20100007800075B
:20128000002811D5FFE7029A07A830F812000DF1260121F81200029A0DF1120030F812009F
:2012A0000CA921F81200FFE7029A0CA830F8120041F61061C2F2010151F8221088420DD955
:2012C000FFE7029A0CA830F8120041F61061C2F2010151F82210401A01900CE0029A41F61B
:2012E0001060C2F2010050F822000CA931F81210401A0190FFE70198ADF81000029A0DF1A6
:20130000260030F8120041F62461C2F2010151F8221088420ED9FFE7029A0DF1260030F801
:20132000120041F62461C2F2010151F82210401A00900DE0029A41F62460C2F2010050F883
:2013400022000DF1260131F81210401A0090FFE70098ADF80E00BDF81000BDF80E100844FC
:20136000062816DBFFE7029A0CA830F8120041F61061C2F2010141F82200029A0DF1260065
:2013800030F8120041F62461C2F2010141F82200FFE741F6C060C2F201000078702812D161
:2013A000FFE7029A0CA830F812000F9901EB42014880029A0DF1260030F812000F9901EB90
:2013C0004201888124E04AF24E50C2F201000088029A41F61061C2F2010151F822104843A6
:2013E000000B0F9901EB420148804AF25050C2F201000088029A41F62461C2F2010151F8D3
:2014000022104843000B0F9901EB42018881FFE7FFE7029801300290CFE6FFE79DF83B0090
:2014200010B080BD0000000081B08DF803009DF80300010901EB810100F00F0000EB4100BB
:20144000C0B201B07047000080B512F015F980BD86B04EF69452CEF20002106820F0050081
:2014600010604EF69851CEF20001002008604EF69C53CEF200031021C2F2010119604EF6EC
:20148000A053CEF200033D21C0F20231196005211160BFF34F8FBFF36F8F4EF65071CEF23E
:2014A00000010860BFF34F8FBFF36F8F4EF61450CEF20000016841F480210160BFF34F8FEB
:2014C00000688003002801D5FFE71AE0BFF34F8FBFF36F8F4EF65071CEF2000100200860B5
:2014E000BFF34F8FBFF36F8F4EF61451CEF20001086840F400300860BFF34F8FBFF36F8FC6
:20150000FFE74EF68451CEF2000100200860BFF34F8F4EF68050CEF200000068029002988B
:20152000C0F34E300190FFE70298C0F3C9000090FFE701990098800761F34D104EF66071F8
:20154000CEF2000108600098411E00910028F0D1FFE70198411E01910028E5D1FFE7BFF30B
:201560004F8FBFF36F8F4EF61450CEF200000068C003002801D5FFE73CE04EF68451CEF271
:20158000000100200860BFF34F8F4EF68050CEF20000006805900598C0F34E300490FFE719
:2015A0000598C0F3C9000390FFE704990398800761F34D104EF66071CEF200010860039850
:2015C000411E03910028F0D1FFE70498411E04910028E5D1FFE7BFF34F8F4EF61451CEF2FC
:2015E0000001086840F480300860BFF34F8FBFF36F8FFFE706B0704784B0039002910192AE
:20160000002000900090FFE700980199B0EB510F11D2FFE70299009A01EB820031F82210B0
:20162000408840EA0140039909680860FFE7009801300090E8E79DF80400C00740B1FFE7BD
:201640000298009930F82100039909680880FFE703980068006804B07047000000000000BD
:2016600084B0039002910192002000900090FFE700980199B0EB910F0DD2FFE702980099F2
:2016800050F8210000BA039909680860FFE7009801300090ECE79DF804008007E8B3FFE7FF
:2016A000019800F00300012808D1FFE70298009910F82100039909680870FFE7019800F066
:2016C000030002280DD1FFE70299009A01EB820011F82210407840EA0120039909680880A3
:2016E000FFE7019800F00300032815D1FFE70299009A01EB820011F82210407840EA0120A0
:201700000399096808800298009900EB81008078039909680870FFE7FFE7039800680068E1
:2017200004B070470000000080B5B6B006F038FE41F63861C2F201010968401A40F62911B6
:20174000884262D3FFE706F02BFE41F63861C2F20101086048F69470C2F2010030A90022A5
:201760000AF086FE41F6C160C2F201000078C007002849D1FFE79DF8C20040F2C571C2F204
:2017800001010978884237D1FFE741F6C161C2F2010101200190087024A802903021FEF731
:2017A0005BFD019902980822249229910AF08CF928B1FFE7A420982104F026FFFFE703A89E
:2017C00000908421FEF748FD0098202103914FF400710F9109F044FB28B1FFE7A420982165
:2017E00004F012FFFFE748F69470C2F201000AF04FFD10F065F8FFE79DF8C20040F2C571BF
:20180000C2F201010870FFE7FFE736B080BD000080B582B08DF8030000208DF802008DF890
:201820000100FFE79DF801000F282ADCFFE79DF8011048F2F450C2F2010000EB011000F043
:201840006FF9B8B1FFE79DF802009DF8031088420AD1FFE79DF8011048F2F450C2F201002E
:2018600000EB011001900FE09DF8020001308DF80200FFE7FFE79DF8010001308DF8010084
:20188000D0E700200190FFE7019802B080BD000082B08DF803009DF803000F280ADCFFE71D
:2018A0009DF8031048F2F450C2F2010000EB0110019002E000200190FFE7019802B0704745
:2018C00048F2F560C2F20100807870470000000080B582B08DF8070000F0F2F828B1FFE789
:2018E0009DF8070000F038FA11E048F2F150C2F201000078FFF78CFF0090009830B1FFE721
:2019000000989DF8071000F02BF8FFE7FFE702B080BD00000000000080B582B001908DF838
:2019200003100198C8B1FFE7019800F0F9F8A0B1FFE70199002008739DF80300019908710B
:2019400006F02EFD019988600198806820B9FFE7019901208860FFE7FFE702B080BD000046
:2019600080B582B001908DF80310019808B9FFE715E0019800F0F0F858B1FFE70198007930
:201980009DF80310884204D1FFE7019800F060F805E001989DF80310FFF7BEFFFFE702B0C8
:2019A00080BD00000000000048F2F460C2F20100007848F2F151C2F20101087070470000CE
:2019C00081B08DF803009DF8030048F2F151C2F20101087001B0704780B582B000208DF898
:2019E0000700FFE79DF807000F2822DCFFE79DF8071048F2F450C2F2010000EB01100090D8
:201A0000009800F08DF808B9FFE70CE000980BF07BFD0098007BC00720B9FFE700980BF0EF
:201A2000DBFCFFE7FFE79DF8070001308DF80700D8E702B080BD000081B08DF803009DF8AE
:201A4000030048F2F561C2F20101887001B0704781B00090009820B1FFE70099002008719B
:201A6000FFE701B07047000080B584B0ADF80E008DF80D10BDF80E0004F02AFF029002984E
:201A8000D0B1FFE79DF80D00029948719DF80D000299087106F084FC20B1FFE706F080FC94
:201AA000019002E001200190FFE7019802998860029901200873FFE704B080BD00000000F1
:201AC00048F2F150C2F20100007848F2F461C2F201010978401AB0FA80F040097047000024
:201AE00082B00190019820B1FFE701984088009002E000200090FFE7009880B202B0704737
:201B000082B00190019820B1FFE701980088009002E000200090FFE7009880B202B0704756
:201B200083B0029002990020019081B1FFE7029801880120009039B9FFE702984088002846
:201B400018BF01200090FFE700980190FFE7019800F0010003B0704782B001900199002097
:201B6000009039B1FFE701984079002818BF01200090FFE7009800F0010002B0704700002B
:201B800082B0019001990020009041B1FFE7019840790238B0FA80F040090090FFE7009863
:201BA00000F0010002B0704782B0019001990020009041B1FFE7019840790138B0FA80F041
:201BC00040090090FFE7009800F0010002B0704782B00190ADF80210019828B1FFE7BDF8CD
:201BE000020001994880FFE702B070470000000082B00190ADF80210019828B1FFE7BDF8AB
:201C0000020001990880FFE702B070470000000080B582B048F2F461C2F20101002008700D
:201C20008DF80700FFE79DF807000F281BDCFFE79DF8071048F2F450C2F2010000EB0110A7
:201C4000FFF76EFF40B1FFE748F2F461C2F20101087801300870FFE7FFE79DF80700013043
:201C60008DF80700DFE702B080BD00000000000080B584B048F2F560C2F201000190512173
:201C8000452204F005FB019800884AF6CD31884205D0FFE700F0ECF800F0A6F820E048F269
:201CA000F561C2F20101B1F84300ADF80E000020A1F8430048F69450C2F20100452205F04A
:201CC00013FCADF80C00BDF80E00BDF80C10884205D0FFE700F0CCF800F086F8FFE7FFE73D
:201CE00000208DF80B00FFE79DF80B000F282CDCFFE79DF80B301A0148F2F451C2F2010169
:201D000048F2F560C2F2010000EB8300D0F8030088509DF80B0001EB0012002010719DF89A
:201D20000B2001EB021250719DF80B2001EB021290609DF80B2001EB02110873FFE79DF852
:201D40000B0001308DF80B00CEE7FFF761FF04B080BD00000000000080B582B08DF80700C8
:201D60009DF8070000F094F88DF8060000208DF80500FFE79DF805000F2831DCFFE79DF8D7
:201D8000051048F2F450C2F2010000EB0110FFF7C7FEF0B1FFE79DF80600C00758B1FFE76C
:201DA0009DF8051048F2F450C2F2010000EB0110FFF74EFE0CE09DF8051048F2F450C2F240
:201DC000010000EB01109DF80710FFF7A5FDFFE7FFE7FFE79DF8050001308DF80500C9E70B
:201DE00002B080BD0000000080B584B000208DF80F00FFE79DF80F000F2817DCFFE79DF8A8
:201E00000F0048F2F561C2F2010101EB8001020148F2F450C2F201008058C1F80300FFE750
:201E20009DF80F0001308DF80F00E3E748F2F561C2F2010102914AF6CD3008800020A1F818
:201E4000430048F69450C2F201004522019205F04BFB019A01460298A0F84310512104F066
:201E60004BFAFFF7D5FE04B080BD00000000000080B582B048F2F560C2F2010001904521C1
:201E8000FEF7EAF901990F20887002B080BD000080B582B08DF8060000208DF80500FFE738
:201EA0009DF805000F2825DCFFE79DF8051048F2F450C2F2010000EB0110FFF731FE90B12B
:201EC000FFE79DF8051048F2F450C2F2010000EB011040799DF80610884204D0FFE700203B
:201EE0008DF807000AE0FFE79DF8050001308DF80500D5E701208DF80700FFE79DF8070046
:201F000002B080BD0000000048F2F460C2F20100007870470000000080B582B000208DF854
:201F20000600FFE79DF806000F2817DCFFE79DF8061048F2F450C2F2010000EB0110FFF73A
:201F40001FFE20B1FFE701208DF807000AE0FFE79DF8060001308DF80600E3E700208DF86A
:201F60000700FFE79DF8070002B080BD0000000080B582B000208DF80600FFE79DF8060056
:201F80000F2817DCFFE79DF8061048F2F450C2F2010000EB0110FFF707FE20B1FFE7012084
:201FA0008DF807000AE0FFE79DF8060001308DF80600E3E700208DF80700FFE79DF8070076
:201FC00002B080BD0000000081B08DF803009DF803004AF22451C2F20101087001B070477A
:201FE00048F6A031C2F20101012008707047000070470000000000007047C06B1CF067BA06
:2020000054770A006EB336DF080925310000010880B584B00390029102984068C07806280E
:202020001AD1FFE7029840680178407840EA0120ADF806000298406880788DF805009DF80D
:202040000500642807DCFFE7BDF806009DF805100EF086FCFFE7FFE7012004B080BD000063
:2020600080B5AEB06420ADF8B6003220ADF8B4005020ADF8B200C020ADF8B000DC20ADF8A6
:20208000AE004FF48770ADF8AC0048F69C30C2F2010040780006002801D4FFE758E248F62F
:2020A0009470C2F20100159049F61411C2F20101012214920AF0DCF9149A159849F6101155
:2020C000C2F201010AF098F948F6EE31C2F2010148798979884241DBFFE749F61410C2F206
:2020E00001000078FFF7A0F948F6EE31C2F20101497988420FDAFFE749F61410C2F2010052
:202100000078FFF791F948F6EE31C2F201018979884209DAFFE748F69C31C2F201010868EE
:2021200040F40010086018E048F69C30C2F201008078800600280FD5FFE748F69C31C2F20D
:202140000101086820F40010086049F68411C2F201010B200870FFE7FFE74AE048F6EE3101
:20216000C2F2010148798979884241DAFFE749F61410C2F201000078FFF756F948F6EE31E9
:20218000C2F201014979884218DBFFE749F61410C2F201000078FFF747F948F6EE31C2F24D
:2021A00001018979884209DAFFE748F69C31C2F20101086840F40010086018E048F69C30A9
:2021C000C2F201008078800600280FD5FFE748F69C31C2F20101086820F40010086049F6DE
:2021E0008411C2F201010B200870FFE7FFE7FFE7FFE748F69C30C2F20100807880070028F3
:2022000040F11E81FFE748F69C30C2F2010080788006002840F11481FFE748F69C30C2F239
:20222000010080784007002840F10A81FFE748F69C30C2F201008078400600280DD5FFE7A7
:2022400041F64C60C2F20100007849F61011C2F201010978884235D0FFE748F69C31C2F263
:202260000101086840F480000860002012901DF077FC12981DF028FF1CF041FB12981DF0B1
:20228000E1FC012013901DF06BFC13981DF01CFF4FF07F401DF030FF1CF031FB139841F602
:2022A0005912C2F201023C21117049F61011C2F20101097841F64C62C2F2010211701DF05D
:2022C000C1FCFFE701201DF04BFC1FF0D7FF0246002010905021C0231CF020FB1098DC21D9
:2022E00064224FF487731CF019FB49F61411C2F2010111911BA802220DF01AFB11988078A5
:20230000C00720B1FFE73A208DF86E0003E020208DF86E00FFE71BA80F90033049F61411FD
:20232000C2F20101013102220DF002FB48F6EE30C2F20100C17940F62410C2F2010050F8E5
:2023400021001DF0DBFE41F64050C0F605001DF0E3FE0E200D901DF035FF0F984FF6A2323A
:20236000C0F60A020E92B2F90C10B2F90E201CF09FFC41F21120C1F21340CDF8670040F6E8
:202380000E70C1F21010199041F61D60C2F21F00189041F61920C1F61B40179041F2156043
:2023A000C1F61700169049F61010C2F2010009900078FFF739F819A9084410F8010C19F031
:2023C0005FFC014609980B918078FFF72DF8014609980C914078FFF727F816A9084410F8A6
:2023E000010C19F04DFC014609980A91C078FFF71BF80A990B9A0C9B84460F980CF5FA6EF1
:20240000EC46CCF804E0CCF8001041F66B01C0F60B0130F05FF94DF24000C0F605001DF0EA
:202420007BFE0D981DF0CEFE0E9A0F98B2F91010B2F912201CF03CFC01201DF003FC53E00A
:2024400041F65910C2F20100007849F61411C2F201014978884246D0FFE749F61411C2F2F6
:2024600001010A4612F8010F059241F65912C2F2010210701BA80790022206920DF058FA1B
:202480000599069A07983A238DF86E3003300DF04FFA4AF65070C0F604001DF03DFE6FF005
:2024A0007F401DF02BFE06981DF096FE0C201DF089FE012008901DF053FB0020DC21642271
:2024C0004FF487731CF02AFA07984FF6A232C0F60A02B2F90810B2F90A201CF0E9FB0898ED
:2024E0001DF0B0FBFFE7FFE741F64C60C2F20100007849F61011C2F201010978884227D0F0
:20250000FFE749F61010C2F201000390017841F64C62C2F201021170827848F69470C2F2A8
:2025200001000490022109F09FFE039904984A78032109F099FE039904980A78042109F0C7
:2025400093FE03990498CA78052109F08DFEFFE72EB080BD0000000080B582B08DF80600D3
:202560009DF80600012815D1FFE741F64D60C2F20100007870B9FFE741F64D61C2F2010110
:202580000120087005F00CFF41F65061C2F20101086038E09DF8060001281FD1FFE741F6B3
:2025A0004D60C2F201000078012817D1FFE705F0F7FE41F65061C2F201010968401AB0F552
:2025C000586F0AD3FFE741F64D61C2F201010020087001208DF8070019E013E09DF806000A
:2025E00078B9FFE741F64D60C2F201000078012807D1FFE741F64D61C2F201010020087099
:20260000FFE7FFE7FFE700208DF80700FFE79DF8070002B080BD000080B582B01E200190B5
:2026200048F69C30C2F2010080788007002810D5FFE748F69C30C2F2010080788006002804
:2026400007D5FFE749F68411C2F201010B200870FFE748F69C31C2F20101086820F4003030
:202660000860086820F48000086005F099FE49F68811C2F20101086048F6EE30C2F20100F3
:202680001E210171C07800F003F802B080BD000081B08DF803009DF80300042804DCFFE734
:2026A00005208DF8030009E09DF80300512804DBFFE750208DF80300FFE7FFE79DF8030052
:2026C00000EB8000400048F6B471C2F201010968486301B07047000080B586B0C8200190CE
:2026E000059096200090049016F072FE0390012002901DF035FAC32091214FF4A072EB237B
:202700001CF00CF96FF07F401DF0F8FC4EF2B030C0F604001DF000FD00201DF05DFD029884
:202720001DF050FD009901981CF076FE039816F05FFE02211CF002FA02981DF083FA06B08A
:2027400080BD00000000000080B584B003F0CCFC1CF06AFE42F24900C0F602001DF010FB57
:202760000120029023F088F81DF07EFE00201DF0ABFC1CF0C4F802981DF0A6FC4FF07F40A7
:202780001DF0BAFC1CF0BBF8029A0DF10F004FF4806103F07DFD9DF80F0031280BDCFFE7B3
:2027A0009DF80F2049F25940C2F2010040F2014103F06EFDFFE70DF10F004FF488610122B8
:2027C00003F066FD9DF80F0031280CDCFFE79DF80F2049F25940C2F20100323040F2414175
:2027E00003F056FDFFE705F0DBFD48F6E431C2F20101086001201DF0B3F91CF080F803F01E
:20280000EBFC0EF011F928B1FFE74FF47F401DF075FC03E0FF201DF071FCFFE7F02088216F
:2028200032231A461CF098FA012001901DF00AFA019849F6D511C2F20101087049F68411C2
:20284000C2F20101087004B080BD00000000000080B582B005F0A4FD41F65461C2F20101BA
:202860000968401A64280AD3FFE705F099FD41F65461C2F2010108601CF04AFCFFE711F070
:20288000F3FA08B1FFE772E049F68410C2F20100007801460191112841D80199DFE801F0DD
:2028A0003C090C0F12303339362A2D15181B1E21242711F069FD3EE011F0F2FF3BE012F017
:2028C000C7FA38E013F0B4FF35E011F099FF32E012F0AAFB2FE012F063FD2CE012F0CCFFB8
:2028E00029E013F099F926E013F08AFA23E013F05FFE20E011F078F81DE011F0B1FD1AE033
:2029000011F0FEFB17E011F043F914E011F000FF11E011F021FB0EE011F03EFF0BE049F235
:202920002631C2F20101002008704AF22451C2F201010870FFE70CF077FE48F2A510C2F219
:2029400001000078FFF708FE88B1FFE749F68410C2F2010000780B2809DCFFE700F030FACB
:2029600049F68411C2F201010C200870FFE702B080BD00000000000080B548F6B850C2F225
:20298000010004F0C1FE4BF20801C4F202010220086080BD0000000082B0019001980078E9
:2029A00010384AF6AB21CAF6AA21A0FB01100009009000994AF65870C0F60500405C019961
:2029C000C8650098042807D3FFE701990868042262F30900886506E00199086840F2FF3278
:2029E00090438865FFE70198806D02B07047000086B0059000208DF813000598806A0390A5
:202A00000598806910BBFFE70398029003281BD80299DFE801F0020D0218059890F82F0064
:202A2000C00720B1FFE701208DF81300FFE70CE00598C06AB0F1C07F04D1FFE701208DF885
:202A40001300FFE701E000E0FFE745E005988069B0F5005F25D1FFE70398019003281ED8FE
:202A60000199DFE801F00206021101208DF8130016E0059890F82F00C00720B1FFE7012047
:202A80008DF81300FFE70BE00598C06AB0F1C07F04D1FFE701208DF81300FFE700E0FFE706
:202AA00019E003980090032804D3FFE70098032804D00EE001208DF813000BE0059890F8BC
:202AC0002F00C00720B1FFE701208DF81300FFE700E0FFE7FFE7FFE79DF8130006B0704703
:202AE00080B58AB032200990BE200890FA2007901FF0D8FBFA3800EBD07040100690069892
:202B0000059005981930049000208DF80C000290019001201DF024F8059901F132030A2099
:202B20004FF4B9721BF0FAFE4CF60070C0F604001DF0F2FA02201DF04FFB0E201DF042FBCE
:202B400049F23140C2F201000078C00758B1FFE7FF201DF0D3FA41F26041C0F60B0101A8AE
:202B6000FDF7A7FB2CE04AF2FF501DF0C7FA49F23040C2F20100017801A82A22FDF765FB38
:202B800049F23440C2F201000068C0B1FFE749F23040C2F20100007801280FDBFFE749F206
:202BA0003240C2F20100007849F23041C2F20101097801AA114401F8010CFFE7FFE7FFE7DB
:202BC000049A01A8BE211CF073F801201DF03AF80AB080BD0000000010B5AEB003F0FCFEF1
:202BE00001201CF0BDFF1BF08AFE03F0F5FA32202D9050202C9028202B900A202A9029909C
:202C00003C202890BE202790FA2026901FF04AFBFA3800EBD0704010259025983C302490A8
:202C20004AF6C06EC0F6050ECDF814E0DEF80000DEF80410DEF80820DEF80C30DEF810C02E
:202C4000DEF814401D94CDF870C01B931A9219911890DEF81800DEF81C10DEF82020DEF81C
:202C60002430DEF828C0DEF82CE0CDF88CE0CDF888C0219320921F911E904AF6906EC0F66A
:202C8000050ECDF818E0DEF80000DEF80410DEF80820DEF80C30DEF810C0DEF8144011941F
:202CA000CDF840C00F930E920D910C90DEF81800DEF81C10DEF82020DEF82430DEF828C0E5
:202CC000DEF82CE0CDF85CE0CDF858C0159314921391129000200B90FFE70B980B2851DCFC
:202CE000FFE70B9845F25651C5F2555150FB01F000EBD0700A900B9850FB01F101EBD17101
:202D000001EB4101401A099009985A2148433C300890249A0A98322100FB012007900898E1
:202D200007990B9B0CAA52F823206B46DA6000229A604FF0020CC3F804C01A605022282300
:202D400019F0FCF801460B9A48F6C040C2F20100049040F822100B9A50F8220018A951F880
:202D6000221019F06FFA04980B9950F8210047F68851C0F6040119F04EFAFFE70B9801302A
:202D80000B90AAE749F23041C2F201010020087049F22741C2F20101087049F23441C2F2D8
:202DA0000101086049F23141C2F201010870FFF797FE01201CF046FF2EB010BD0000000026
:202DC0002DE9F041A2B016F003FB2190002019901DF07AF91BF093FD012020901DF074F976
:202DE0004FF07F401DF088F91BF089FD20981CF0B7FEDDF864C04FF63843C0F60A031C9312
:202E0000B3F90000B3F90210B3F90420B3F90630EE461425CEF814500324CEF810404FF47F
:202E20000664CEF80C40CEF808C00224CEF80440CEF800C020F01DFD014648F62050C2F2FF
:202E400001000690016000684FF47F41169120F022FE0698199A006840F61861C0F60B010E
:202E600020F0F5FD0698209A006840F63C61C0F60B0120F0ECFD0698006840F64B61C0F664
:202E80000B01224620F0E3FD069800680790219816F066FA0146079820F014FEDDF864C011
:202EA0001C9BB3F91000B3F91210B3F91420B3F91630EE462827CEF8107005261E96CEF891
:202EC0000C6040F63108CEF80880CEF80440CEF800C021F0D6F9014648F62C50C2F20100A3
:202EE000089001600068214621F0F5FA089800680990219816F094FA0146099821F015FB13
:202F0000DDF864C01C9BB3F91800B3F91A10B3F91C20B3F91E30EE46CEF81070CEF80C60D9
:202F200040F63206CEF80860CEF80440CEF800C021F0A7F9014648F63050C2F201000A9060
:202F400001600068214621F0C6FA0A9800680B90219816F06DFA01460B9821F0E6FADDF8F5
:202F600064C01C9BB3F90800B3F90A10B3F90C20B3F90E30EE46CEF81450CEF8104040F690
:202F80006105CEF80C50CEF808C0CEF80440CEF800C020F06EFC1699024648F6B040C2F238
:202FA00001000C900260006820F075FD0C98199A006840F60961C0F60B0120F048FD0C980E
:202FC000209A006840F6A611C0F60B0120F03FFD0C9800680D90219816F0CAF901460D98BD
:202FE00020F070FDDDF864C01C9BB3F92000B3F92210B3F92420B3F92630EE460A25CEF8DF
:203000001050CEF80CC040F66405CEF80850CEF80440CEF800C021F034F9014648F6B440BA
:20302000C2F201000E9001600068214621F053FA0E9800680F90219816F0A2F901460F98BA
:2030400021F073FADDF864C01C9BB3F92800B3F92A10B3F92C20B3F92E30EE463225CEF835
:203060001050CEF80CC040F66505CEF80850CEF80440CEF800C021F004F9014648F6BC4081
:20308000C2F20100109001600068214621F023FA109800681190219816F082F901461198A2
:2030A00021F043FADDF864C01C9BB3F93000B3F93210B3F93420B3F93630EE466425CEF8B3
:2030C0001050CEF80CC040F66605CEF80850CEF80440CEF800C021F0D4F8014648F6B84055
:2030E000C2F20100129001600068214621F0F3F9129800681390219816F04AF901461398A3
:2031000021F013FADDF864C01C9BB3F93800B3F93A10B3F93C20B3F93E30EE46FE25CEF8C8
:203120001050CEF80CC040F67915CEF80850CEF80440CEF800C021F0A4F8014648F6245085
:20314000C2F20100149001600068214621F0C3F9149800681590219816F032F90146159882
:2031600021F0E3F9DDF864C01C9BB3F94000B3F94210B3F94420B3F94630EE4640F67A159D
:20318000CEF80C50CEF808C0CEF80440CEF800C019F0D7F81699024648F62850C2F20100B5
:2031A00017900260006819F000FA1798006841F6B031C0F60B0119F0D4F917980068189015
:2031C000219816F049F90146189819F0AEF9DDF864C01C9BB3F94800B3F94A10B3F94C2085
:2031E000B3F94E30EE4640F60505CEF80C50CEF808C0CEF80440CEF800C018F09FFE014605
:2032000048F60440C2F201000160006841F2B161C0F60B0119F016F8DDF864C01C9BB3F934
:203220005000B3F95210B3F95420B3F95630EE4640F60305CEF80C50CEF808C0CEF80440B2
:20324000CEF800C018F07AFE014648F60840C2F201000160006840F6DF51C0F60B0118F0ED
:20326000F1FF6FF07F401CF049FF44F62460C0F604001CF051FF0C201D901CF0A3FF1C99DC
:20328000B1F95800B1F95A101CF0C6F841F26460C0F60B001BF088FC1C99B1F95C00B1F9A2
:2032A0005E101CF0B9F840F69B10C0F60B001A901BF07AFC1C99B1F96000B1F962101CF02F
:2032C000ABF841F25160C0F60B001BF06DFC1C99B1F96400B1F966101CF09EF81A981BF0F0
:2032E00063FC1C99B1F96800B1F96A101CF094F840F66C20C0F60B001BF056FC1C99B1F9AD
:203300006C00B1F96E101CF087F840F68E10C0F60B001BF049FC1C99B1F97000B1F97210AE
:203320001CF07AF840F60920C0F60B001BF03CFC1C99B1F97400B1F976101CF06DF840F602
:203340007A10C0F60B001B901BF02EFC1C99B1F97800B1F97A101CF05FF840F6F710C0F6E1
:203360000B001BF021FC1C99B1F97C00B1F97E101CF052F81B981BF017FC1C99B1F9800001
:20338000B1F982101CF048F840F6AF20C0F60B001BF00AFC1C99B1F98400B1F986101CF09F
:2033A0003BF840F69820C0F60B001BF0FDFB1C99B1F98800B1F98A101CF02EF841F2143054
:2033C000C0F60B001BF0F0FB1D981E994FF4A0721F921BF0C1FD1E991F9A82201BF0BCFD25
:2033E00020981CF02FFC22B0BDE8F081000000002DE9F041A2B0002020901CF065FE1BF013
:203400007EFA0125089528461CF05EFE4FF07F401CF072FE1BF073FA28461CF0A1FB48F655
:203420009470C2F20100099049F61411C2F2010113912A4609F01CF8099849F61011C2F24A
:2034400001011A912A4608F0D7FFDDF880C04FF6C443C0F60A031F93B3F90000B3F9021041
:20346000B3F90420B3F90630EE465A27CEF81070CEF80C5040F63306CEF8086002240A941C
:20348000CEF80440CEF800C020F0FBFE014648F6F440C2F201000B9001600068214621F049
:2034A0001AF80B98006848F6EE31C2F201011E91C97821F03AF81F9BDDF880C0B3F9080026
:2034C000B3F90A10B3F90C20B3F90E30EE46CEF81070CEF80C5040F63407CEF80870CEF853
:2034E0000440CEF800C020F0CCFE014648F6F840C2F201000C9001600068214620F0EBFFF0
:203500000C981E990068897821F00FF81F9BDDF880C0B3F91000B3F91210B3F91420B3F9EA
:203520001630EE46F027CEF81070CEF80C5040F63507CEF80870CEF80440CEF800C020F042
:20354000A0FE014648F61450C2F201000D9001600068214620F0BFFF0D981E99006809794E
:2035600020F0E3FF1F9BDDF880C0B3F91800B3F91A10B3F91C20B3F91E30EE461727CEF8D6
:203580001070CEF80CC040F63608CEF80880CEF80440CEF800C020F074FE014648F6105060
:2035A000C2F201000E9001600068214620F093FF0E981E990068497920F0B7FF1F9BDDF80A
:2035C00080C0B3F92000B3F92210B3F92420B3F92630EE46CEF81070CEF80CC040F637088E
:2035E000CEF80880CEF80440CEF800C020F049FE014648F60C50C2F201000F900160006898
:20360000214620F068FF0F981E990068897920F08CFF1F9BDDF880C0B3F92800B3F92A10E0
:20362000B3F92C20B3F92E30EE46CEF81070CEF80CC040F63A07CEF80870CEF80440CEF8F7
:2036400000C020F01EFE014648F6FC40C2F20100109001600068214620F03DFF1099139898
:20366000096811910078FDF7DFFE0146119820F05CFF1F9BDDF880C0B3F93000B3F93210FA
:20368000B3F93420B3F93630EE463B27CEF81070CEF80CC040F63B07CEF80870CEF80440EA
:2036A000CEF800C020F0EDFD014648F60050C2F20100129001600068214620F00CFF129968
:2036C0001398096814914078FDF7AEFE0146149820F02BFF1F9BDDF880C0B3F93800B3F945
:2036E0003A10B3F93C20B3F93E30EE461F27CEF81070CEF80C5040F63C07CEF80870CEF8FF
:203700000440CEF800C020F0BCFD014648F6F040C2F20100159001600068214620F0DBFEEE
:2037200015991A98096816918078FDF77DFE0146169820F0FAFE1F9BDDF880C0B3F94000F2
:20374000B3F94210B3F94420B3F94630EE460C27CEF81070CEF80C5040F63D07CEF80870B2
:20376000CEF80440CEF800C020F08BFD014648F60450C2F20100179001600068214620F0AC
:20378000AAFE17991A98096818914078FDF74CFE0146189820F0C9FE1F9BDDF880C0B3F9C6
:2037A0004800B3F94A10B3F94C20B3F94E30EE46CEF810604FF4FA66CEF80C6040F63E06C0
:2037C000CEF80860CEF80440CEF800C020F059FD014648F61850C2F20100199001600068B1
:2037E000214620F078FE19991A9809681B91C078FDF71AFE01461B9801F5FA6120F095FE29
:203800001F9BDDF880C0B3F95000B3F95210B3F95420B3F95630EE461C26CEF81060CEF80B
:203820000C5040F63806CEF80860CEF80440CEF800C020F026FD014648F60850C2F2010035
:203840001C9001600068214620F045FE1C981E990068C97920F069FE1F9BDDF880C0B3F932
:203860005800B3F95A10B3F95C20B3F95E30EE4640F65106CEF80C60CEF808C0CEF80440ED
:20388000CEF800C018F05DFD014648F61C40C2F201001D90016000684FF47F4118F085FEA6
:2038A0001D98006841F2FC31C0F60B0118F059FE1D981E990068097A01F0010118F035FEE5
:2038C0001F9BDDF880C0B3F96000B3F96210B3F96420B3F96630EE4640F63F06CEF80C609C
:2038E000CEF80850CEF80440CEF800C018F0AAFF0146209848F6AC42C2F201021160219065
:20390000FFE7219806281CDCFFE748F6AC40C2F20100006848F6EE31C2F20101897AC1EBF3
:20392000C10240F2D871C2F2010101EB8201219A51F8221018F099FEFFE7219801302190CE
:20394000DFE748F6AC40C2F20100006849F61011C2F201010978013919F075F94FF6C443C6
:20396000C0F60A030793B3F96800B3F96A10B3F96C20B3F96E30EE4640F6050CCEF80CC021
:203980004FF0000CCDF814C0CEF808C00224CEF80440CEF800C018F0D1FA014648F6044063
:2039A000C2F201000160006841F2B161C0F60B0118F048FCDDF814C0079BB3F97000B3F923
:2039C0007210B3F97420B3F97630EE4640F60305CEF80C50CEF808C0CEF80440CEF800C021
:2039E00018F0ACFA014648F60840C2F201000160006840F6DF51C0F60B0118F023FC48F641
:203A0000EE30C2F20100C17940F62410C2F2010050F821001CF072FB079BB3F97800B3F926
:203A20007A10B3F97C20B3F97E301BF0CDFB6FF07F401CF063FB44F62460C0F604001CF07B
:203A40006BFB0C201CF0BEFB079AB2F9CC00B2F9CE10B2F9D0201BF07FFA0799B1F9800085
:203A6000B1F982101BF0D8FC41F21260C0F60B001BF09AF80799B1F98400B1F986101BF00F
:203A8000CBFC40F68B60C0F60B001BF08DF80799B1F98800B1F98A101BF0BEFC41F22C7043
:203AA000C0F60B001BF080F8079AB2F9D200B2F9D410B2F9D6201BF04FFA0799B1F98C004A
:203AC000B1F98E101BF0A8FC40F63C40C0F60B001BF06AF80799B1F99000B1F992101BF0DE
:203AE0009BFC41F2EF40C0F60B0006901BF05CF80799B1F99400B1F996101BF08DFC40F61F
:203B0000BD50C0F60B001BF04FF8079AB2F9D800B2F9DA10B2F9DC201BF01EFA0799B1F9B8
:203B20009800B1F99A101BF077FC41F25040C0F60B001BF039F80799B1F99C00B1F99E101D
:203B40001BF06AFC40F6D770C0F60B001BF02CF80799B1F9A000B1F9A2101BF05DFC40F6A7
:203B60002270C0F60B001BF01FF8079AB2F9DE00B2F9E010B2F9E2201BF0EEF90799B1F922
:203B8000A400B1F9A6101BF047FC41F25510C0F60B001BF009F80799B1F9A800B1F9AA1018
:203BA0001BF03AFC41F2A160C0F60B001AF0FCFF0799B1F9AC00B1F9AE101BF02DFC40F602
:203BC0008B30C0F60B001AF0EFFF0799B1F9B000B1F9B2101BF020FC06981AF0E5FF0799B8
:203BE000B1F9B400B1F9B6101BF016FC40F69230C0F60B001AF0D8FF0799B1F9B800B1F994
:203C0000BA101BF009FC06981AF0CEFF079AB2F9E400B2F9E610B2F9E8201BF09DF9079990
:203C2000B1F9BC00B1F9BE101BF0F6FB40F61E50C0F60B001AF0B8FF0799B1F9C000B1F9D0
:203C4000C2101BF0E9FB41F23470C0F60B001AF0ABFF0799B1F9C400B1F9C6101BF0DCFBE7
:203C600040F69960C0F60B001AF09EFF0799B1F9C800B1F9CA101BF0CFFB41F23730C0F6F2
:203C80000B001AF091FF01201BF0DCFF22B0BDE8F081000000000000F0B59FB002F0F0F8C2
:203CA0001E9016F075FA1D90002015901CF00CFA1AF025FE01241C9420461CF005FA4FF0AB
:203CC0007F401CF019FA1AF01AFE20461BF048FFDDF854C04FF6AE53C0F60A031B93B3F9E0
:203CE0004800B3F94A10B3F94C20B3F94E30EE4640F66205CEF80C50CEF808400224169463
:203D0000CEF80440CEF800C018F09CFD014648F61C50C2F2010006900160006840F61861BE
:203D2000C0F60B0118F0A1FC0698006841F2EB31C0F60B011A9118F098FC0698006841F285
:203D40006D41C0F60B01199118F08FFC0698006848F6EE31C2F20101C97A18F074FF069841
:203D6000006845F66411C0F6040118F042FFDDF854C01B9BB3F95000B3F95210B3F954205E
:203D8000B3F95630EE4640F60505CEF80C50CEF808C0CEF80440CEF800C018F0CFF8014627
:203DA00048F60440C2F201000160006841F2B161C0F60B0118F046FADDF854C01B9BB3F969
:203DC0005800B3F95A10B3F95C20B3F95E30EE4640F60305CEF80C50CEF808C0CEF80440E7
:203DE000CEF800C018F0AAF8014648F60840C2F201000160006840F6DF51C0F60B0118F018
:203E000021FADDF854C01B9BB3F90000B3F90210B3F90420B3F90630EE46FE25CEF810504F
:203E2000CEF80CC040F67B16CEF80860CEF80440CEF800C020F025FA014648F24C70C2F24B
:203E40000100099001600068214620F044FB0998006807901E9802F0EFF80146079820F024
:203E600064FBDDF854C01B9BB3F90800B3F90A10B3F90C20B3F90E30EE46CEF81050CEF8E8
:203E80000CC040F67C15CEF80850CEF80440CEF800C020F0F6F9014609984160406821464A
:203EA00020F019FB0998406808901E9802F0BCF80146089820F039FBDDF854C01B9BB3F92B
:203EC0001000B3F91210B3F91420B3F91630EE460625CEF81050CEF80CC040F67D16CEF88C
:203EE0000860CEF80440CEF800C020F0CAF90146099881608068214620F0EDFA099880685F
:203F00000A901E9802F0A0F801460A9820F00DFBDDF854C01B9BB3F91800B3F91A10B3F9E1
:203F20001C20B3F91E30EE464FF40076CEF81060CEF80CC040F68F06CEF80860CEF8044093
:203F4000CEF800C020F09DF9014648F64050C2F201000B9001600068214620F0BCFA0B9837
:203F600000680C901D9816F04FFA01460C9820F0DCFADDF854C01B9BB3F92000B3F922101F
:203F8000B3F92420B3F92630EE46FF26CEF81060CEF80CC04FF40967CEF80870CEF8044013
:203FA000CEF800C020F06DF9014648F63850C2F201000D9001600068214620F08CFA0D983B
:203FC00000680E901D9816F00FFA01460E9820F0ACFADDF854C01B9BB3F92800B3F92A101B
:203FE000B3F92C20B3F92E30EE46CEF81060CEF80CC040F69106CEF80860CEF80440CEF8F8
:2040000000C020F03EF9014648F63450C2F201000F9001600068214620F05DFA0F98006896
:2040200010901D9816F0D8F90146109820F07DFADDF854C01B9BB3F93000B3F93210B3F9C9
:204040003420B3F93630EE46CEF81050CEF80CC040F69206CEF80860CEF80440CEF800C082
:2040600020F00FF9014648F64450C2F20100119001600068214620F02EFA1198006812909E
:204080001D9816F0C9F90146129820F04EFADDF854C01B9BB3F93800B3F93A10B3F93C20D9
:2040A000B3F93E30EE46CEF81050CEF80CC040F69305CEF80850CEF80440CEF800C020F06E
:2040C000E0F8014648F64850C2F20100139001600068214620F0FFF91398006814901D98EF
:2040E00016F0A2F90146149820F01FFADDF854C01B9BB3F94000B3F94210B3F94420B3F9BE
:204100004630EE462025CEF81050CEF80CC040F69405CEF80850CEF80440CEF800C020F06B
:20412000B0F81699024648F63C50C2F2010017900260006820F0CFF91798006818901D98A4
:2041400016F05AF90146189820F0EFF96FF07F401BF0D4FF44F62460C0F604001BF0DCFFBD
:204160000C201CF02FF81B99B1F96C00B1F96E101BF052F919981AF017FD1B99B1F97000FB
:20418000B1F972101BF048F941F24470C0F60B001AF00AFD1B99B1F97400B1F976101BF0E1
:2041A0003BF919981AF000FD1B99B1F97800B1F97A101BF031F941F22E10C0F60B001AF098
