:020000040000FA
:20000000A0210020DD0100080D1F0008411D0008091F000889020008D525000800000000BA
:20002000000000000000000000000000EF010008E903000800000000F3010008971F00081A
:20004000F7010008F7010008F7010008F7010008F7010008F7010008F7010008F7010008A0
:20006000F7010008F7010008F7010008F7010008F7010008F7010008F7010008F701000880
:20008000F7010008F7010008F7010008F7010008F7010008F7010008F7010008F701000860
:2000A000F7010008F7010008F7010008F7010008F7010008F7010008F7010008F701000840
:2000C000F7010008F7010008F7010008F7010008F7010008F7010008F7010008F701000820
:2000E000F7010008F7010008F7010008F7010008F7010008F7010008F7010008F701000800
:20010000F7010008F7010008F7010008F7010008F7010008F7010008F7010008F7010008DF
:20012000F7010008F7010008F7010008F7010008F7010008F7010008F7010008F7010008BF
:20014000F7010008F7010008F7010008F7010008F7010008F7010008F7010008F70100089F
:20016000F7010008F7010008F7010008F7010008F7010008F7010008F7010008000000007F
:20018000F7010008F7010008F7010008F7010008F7010008F7010008F7010008F70100085F
:2001A000F7010008F7010008F7010008F7010008851F0008F7010008F7010008F701000893
:2001C000F7010008F7010008DFF80CD000F04AF80048004721260008A02100200648804766
:2001E00006480047FEE7FEE7FEE7FEE7FEE7FEE7FEE7FEE7FEE7FEE789250008C9010008F0
:2002000040EA01039B0703D009E008C9121F08C0042AFAD203E011F8013B00F8013B521EC2
:20022000F9D27047D2B201E000F8012B491EFBD270470022F6E710B513460A4604461946B2
:20024000FFF7F0FF204610BD30B504460020034600E05B1C934203D2E05CCD5C401BF8D065
:2002600030BD0000064C074D06E0E06840F0010394E8070098471034AC42F6D3FFF7A8FF8F
:20028000382700085827000801F0B2BEF0B521480168890312D4BFF34F8F0021BFF36F8FC5
:2002A000C0F83C12BFF34F8FBFF36F8F016841F400310160BFF34F8FBFF36F8F0168C90353
:2002C00026D40021016743F6E07CBFF34F8FC26EC2F34E31C2F3C9039A0701330CEA411570
:2002E00016461F4646EA050406F14046013FC0F84C42F7D14C1E00292146EFD1BFF34F8FEF
:20030000016841F480310160BFF34F8FBFF36F8FF0BD00BF14ED00E070B58B1C54084CB17B
:2003200033F8025C1E880433013C46EA054506683560F4E7D30701D1006805E022F00102B4
:20034000006831F812100180006870BD70B54B1C94083CB153F8016C05680433013C36BA36
:200360002E60F6E702F00303032B09D0022B14D0012B1BD122F00302895C0268117015E00E
:2003800022F00302541C8B5C02320C5D44EA032304682380895C217008E022F003028B5C93
:2003A0000132895C026841EA032111800068006870BD000010B501686FF00F02182308A459
:2003C00052FA81F2B2FBF3F35F2AE35C40F2FF3421EA040188BF0431C0E91613084610BD25
:2003E000000610160006101670472DE9F04FC1B091468A468046541801F006FD504621465E
:2004000001F0CEFE08B1012027E00DF1040B4F4646465546AFB13C46B7F5807F58463146D3
:2004200028BF4FF480742246FFF7EAFE58462946224601F096FF0028E5D13F1B2644254452
:20044000E8E701F0E1FC01F0F5FE404651464A46FFF7FAFE002818BF012041B0BDE8F08F4B
:20046000524A0329136823F4407313604FF4407338BF0B02116819431160116821F0F80139
:200480001160116841EAC00040F002001060106840F480301060BFF34F8F704700F1784128
:2004A000B1F5003F02D2C1F3C73070470E4A02F5003100EA01030D498B4201D1042011E0A9
:2004C00002400B48824204D00A48824203D1062008E0052006E001F520214FF0FF308A427B
:2004E00008BF0720C0B270470000FCFF0000020800000408000008082C490A6822F4407215
:200500000A600A6842F004020A600A6842EA002040F480300860BFF34F8F7047234A136824
:2005200023F44073136013681360136843F0010313600170BFF34F8F704700BF10B51B49CB
:200540000C6824F440740C600C6844F440740C600C6844F001040C6002604360BFF34F8F75
:2005600010BD00BF114A136823F440731360136843F480731360136843F00103136001801E
:20058000BFF34F8F704700BF084A136823F440731360136843F400731360136843F0010301
:2005A00013600160BFF34F8F704700BF103C024029480168890704D526498A6942F02002DA
:2005C0008A610168C90604D522498A6942F010028A610168890604D51E498A6942F008022B
:2005E0008A610168490604D51A498A6942F004028A610168090604D516498A6942F002022D
:200600008A61F22101607047F8B5044611480021114E816100F0ECFB0546671C3068C00312
:2006200009D5002FFAD024B100F0E2FB401BA042F4D90320F8BD306810F0F20F03D0FFF7FD
:20064000B7FF0120F8BD3068C00701D0012030600020F8BD800100200C3C0240FEB5016910
:20066000044601F17840B0F1094F01D9012245E04FF4005042F2040242F20C0300270858D4
:2006800020608D5842F208026560461E8A58A260B7EB165FCB58E36001D002222EE00135F4
:2006A000022D01D2032229E00132022A01D2042224E00522B3F1006F20D300F10165AB423D
:2006C0001CD84FF0FF320E4DCDE9010228464FF4006200F065F801A92846022200F039F8E5
:2006E000206842F208022169801A11448208284600F02FF86168421A18BF0622D0B2FEBD4B
:200700001001002010B51F2321FA03F4E40704D1013B5C1CF8D14FF0FF330124B4EBF20F1C
:2007200009D04FEAF204022C10D0032C05D1062B03D9012010BD0F2BFBD8006841618168A3
:2007400021F0180111438160002010BD072BF0D8F3E710B5037F04460220012B1FD06077D4
:2007600001202077206A012809D002280BD003280DD172B1236801C9013A1860F9E72046B6
:20078000FFF7E4FD07E02046FFF7C6FD03E0002001E020680068002121770121617710BD28
:2007A000B0B5037F04460220012B22D06077012020772068236A012B856845F001058560EB
:2007C00008D0022B0AD0032B0CD16AB108C90360013AFAE72046FFF7B9FD06E02046FFF770
:2007E0009BFD02E0002000E000680021217701216177B0BDB0B598B10446407F02250228EF
:200800000FD0657700252068816841F00101816001790571204600F03FF82577657700E09E
:2008200001252846B0BD000010B588B10446407F20B900202077204600F02FF802206077AA
:20084000207938B1D4E902122046FFF75BFF40B1012010BD20680F494161816821F018011B
:200860008160607908B1206901E04FF0FF302168D4E905230861886820F0600010438860BB
:20088000886820F080001843886001206077002010BD00BFB71DC1047047704770B504467B
:2008A000866D00F0A5FA054694F8350002281ED12068216C026822F016020260426922F0C9
:2008C0008002426109B9A16C19B1016821F008010160016821F0010101600068C0070DD08D
:2008E00000F086FA401B052814D82068F5E7002084F8340080206065012070BDE06D3F2180
:2009000001FA00F0B0600121002084F8340084F8351070BD20206065002084F83400032004
:2009200084F8350070BD90F83510022909D1052180F835100068016821F0010101600020BF
:2009400070478021416501207047B0B530B1054690F83500022803D102241BE0012419E036
:2009600028680024016821F001010160046044608460C4600461212141612846FFF71AFD12
:20098000E96D3F2202FA01F181606C6585F8344085F835402046B0BD80B509484FF0FF3155
:2009A0000022016102614161426101600260416042608160826000F07BFA002080BD00BFC1
:2009C00010380240F8B5204800F0F1FB01F0D2F900F0D0FFFFF7E0FFBFF34F8F1B4843F620
:2009E000E07CBFF36F8F016821F4003101600021C0F83C12BFF34F8FBFF36F8F0167BFF35A
:200A00004F8F016821F480310160BFF34F8FC26EC2F34E31C2F3C9039A0701330CEA4115D2
:200A200016461F4646EA050406F14046013FC0F86042F7D14C1E00292146EFD1BFF34F8F93
:200A4000BFF36F8FF8BD00BF3401002014ED00E02DE9F041DFF81481054698F81400012871
:200A600002D10220BDE8F081012088F814000C464CF25030FFF7C8FD58BB4FF0FF302060EA
:200A80003B4F286801280BD1287BFFF735FD4CF25030FFF7B9FD396821F00401396018E0BA
:200AA00068680646A968084486420FD2297B3046FFF7D6FC4CF25030FFF7A6FD396821F029
:200AC0007A01396020B968680136EBE7002000E02660002188F81410BDE8F081244801681A
:200AE00041F0004101600020704700BF2DE9F041DFF87880074698F81400012802D1022068
:200B0000BDE8F081012088F814001E4614460D464CF25030FFF778FD10BB032F17D8DFE81D
:200B200007F002070C11E1B22846FFF7F7FC0EE0A1B22846FFF716FD09E028462146FFF742
:200B400023FD04E0284622463346FFF7F7FC4CF25030FFF759FD06490A6822F001020A600F
:200B6000002188F81410BDE8F08100BF80010020103C02400648C168B1F1FF3FC4BF0120B1
:200B8000704704490160044901600020704700BF043C024023016745AB89EFCD2DE9F04F15
:200BA0008D4A4FF00A0A4FF0000E01264FF00F094FF0000800259042884A08BF4FF0090A17
:200BC00002444FEAB223092B38BF4FEAB22A844AA2F57E7B102D47D006FA05F20A423DD07F
:200BE0000323076803FA0EF46FF0030303EA550CA743076000EB0C0308F01C0709FA07F747
:200C00001E6ABE431E628368A3438360436893434360C368A343AC08C36008F00C0309FA01
:200C200003F75BF824600AFA03F33E409E424FF0010613D15BF82430D243BB434BF8243010
:200C4000674C236813402360636813406360A3681340A360634C23681A4022600EF1020E19
:200C600008F104080135B5E7BDE8F08F2DE9F84F594A4FF00A094FF0000E4FF0010A4FF051
:200C80000F084FF0000B9042544A08BF4FF0090902444FEAB223092B38BF4FEAB2290022B6
:200CA000102A00F096800AFA02F60C68344200F08A804F6847F01004122C11D16FF003038D
:200CC0000BF01C0403EA520508FA04F70544D5F820C00B692CEA0707A3403B432B624F6885
:200CE000032407F003030568122F04FA0EF403FA0EF325EA04056FEA040443EA0503036013
:200D000011D80AFA07F313F0061F0CD08368CD68234005FA0EF52B4383603B09456893404E
:200D2000B5432B434360C36823408C6804FA0EF42343C360FB0046D52B4C294F22F0030580
:200D4000BC463D44236843F480432360236803F480430093009F0BF00C03244F08FA03F41B
:200D600009FA03F3B846EF5927EA0404234345F808304FF00F08DCF800304D6843EA0604FA
:200D8000EF0358BF23EA0604CCF80040AF03DCF8043043EA060458BF23EA0604CCF8044008
:200DA000EF02DCF808300F4F43EA060458BF23EA0604CCF80840AD023B6843EA060458BFC7
:200DC00023EA06043C600EF1020E0BF1040B013266E7BDE8F88F00BF002402400000FEBFB8
:200DE000003C01400C3C01404438024008FCFFFF1B480068704700BFB0B5C0B10446006864
:200E00004CF6CC43D4E90112036045F25553036041608260FFF7ECFF05462068C16841B1BA
:200E2000FFF7E6FF401B3028F7D90320B0BD0120B0BDE16802698A4206BF4AF6AA21016085
:200E400001610020B0BD00684AF6AA2101600020704700000248016801310160704700BF3C
:200E60009C01002080B50748016841F400710160032000F05BF80F2000F006F800F019F83D
:200E8000002080BD003C024010B5044607484FF47A710068B0FBF1F000F03EFF4FF0FF305C
:200EA0002146002200F026F8002010BD000000207047704700280CD400F01F01012240099C
:200EC00002FA01F1034A42F82010BFF34F8FBFF36F8F704780E100E0002808D400F01F0121
:200EE0000122400902FA01F1014A42F82010704700E100E070B5134B4FF0FF351B68C3F33C
:200F00000223DC1E83F0070338BF0024042B28BF042305FA04F605FA03F3B2439943A1403D
:200F20001143BDE8704001F057BB00BF05494FF6FF030A681A4060F30A2203481043086060
:200F4000704700BF0CED00E00000FA05BCB51848184D016841F080510160006800F0805019
:200F600001900198286840F480302860FFF740FF04466868C00306D4FFF73AFF001BB0F570
:200F80007A7FF6D90FE0286840F400302860FFF72FFF04466868800307D4FFF729FF001B49
:200FA000B0F57A7FF6D90320BCBD0020BCBD00BF40380240007000407CB50446FFF718FFDE
:200FC000054694F8410080074FF0000020D584F840002068016849070BD5016821F00401E2
:200FE0000160E06BFFF75AFC18B1606C40F0040060642068A16C2B460226026842F002029E
:201000000260009120460221012201F081F900B17CBD2068A16C00222B46C6600091204697
:20102000202101F075F90028F2D1012084F8410000207CBD7047000080B590F84110890799
:2010400021D5002180F84010082180F8411001680A6822F4F8120A600A6852070AD402208F
:20106000C860086840F400300860086840F00200086008E0C06BD94A02650A6822F00402DB
:201080000A60FFF750FC002080BD00BF2DE9FC411D46174688460446FFF7AAFE064694F8E7
:2010A0004000012802D10220BDE8FC81012084F8400094F84100012832D1002060642021B5
:2010C00000223346422084F841000095204601F01FF930BB206897E80E1081624262C36296
:2010E000C8F828C03969026822F4400211434FF0006241F4800101602046414600F088FF74
:20110000204608210122334600950825012701F0FFF830B92068C560002084F8417000E00F
:201120000220002184F84010BDE8FC817047F8B515460F460446FFF75BFE064694F84000B9
:20114000012801D10220F8BD012084F8400094F841100220012921D10021616484F8410022
:201160002046002233460095202101F0D1F8A8B920463946002200F04BFF786A20B1012068
:2011800084F84100002009E0204602210122334600950225012701F0BBF818B1002184F876
:2011A0004010F8BD2068C56084F84170EAE710B50446006828B194F84010012903D1022033
:2011C00010BD012010BD012184F84010016821F00101016000F0A6F90020606484F8410059
:2011E00084F8400010BD70477047000010B5016804468A680868530718D510F4802315D04B
:2012000094F84100122838D108468268520763D5E26A002A5CD0606A421C6262007881F876
:2012200020002068E26A013AE262EEE7930739D510F4003336D00220C860086820F4E020B3
:20124000086094F8410012284BD10868400709D5086820F004000860E06B0068016821F055
:20126000010101602046FFF7E7FE012084F841002046BDE8104000F0F1BA94F841002228DF
:201280002AD108468268520726D5A26B02B391F82000226B531C236310702068A26B013A8A
:2012A000A263EFE7130725D510F4002322D00820C8600868400206D5086820F4102008602D
:2012C000012084F841002046BDE8104000F066BA016821F4802101602046BDE81040FFF7F4
:2012E00083BF94F84100222815D1086840072ED4084650E0D30718BF10F4803317D1D20650
:201300003ED510F480103BD01020C8602046BDE8104000F044BA94F84100022822D101206F
:2013200084F841002046BDE81040FFF7FFBE0120C8600A6822F470220A60626C42F0020211
:2013400062640A68520738D484F8410013E0086820F004000860E06B0068016821F0010125
:2013600001601FE094F84100082809D1012084F84100606C60B32046BDE81040FFF733BF36
:2013800010BD91F82000226B531C236310702068A26B013AA263806810F4F85F1CBFA06BD7
:2013A0000028EED12046FFF747FE012084F841002046BDE8104000F0F0B9E06B074A0265D0
:2013C0000A6822F004020A60BDE81040FFF7ABBA2046BDE81040FFF72DBE00BF6F21000836
:2013E0002DE9FC410446FFF703FD3CB1054694F84000012805D10220BDE8FC810120BDE84D
:20140000FC81012084F8400094F8410008B1A06C08E0002084F84000204600F0BDF841F2DE
:201420008830A0642168A2686FF0FF034FF0000803EB02220B6823F4F8531A430A60009077
:20144000204620212B46002200F062FF08BBD4E90012D4E90335114E0F683E40334343EA83
:201460000262E3691A43236A1A430A600C4B4A681A4063691A43A36942EA05421A434A60F9
:201480000A6842F001020A60C4F84480012184F8411084F84080BDE8FC8100BF2FFFFF0082
:2014A000FEF8E0FF7CB516460D460446FFF7A0FC034694F84000012801D102207CBD01200F
:2014C00084F8400094F84100012826D10020606420210022822084F84100A06C00902046BB
:2014E00000F016FFD0B9206871680829026822F0080242EA0102026007D1316801631021AF
:20150000C160016841F480110160204629464FF0406200F07DFD002000E00220002184F83B
:2015200040107CBD70B54620FFF7C4FC5C20FFF7C1FC154815490160FFF707FA644C144E8D
:201540004021A4F580552846B04728460421B04720464FF48071B04720464FF40071B0472B
:2015600020468021B04720464021B0470948016841F002010160016821F002010160016A17
:2015800021F00201016270BDAC000020B86402409D0B0008183802402DE9F04786B04B4825
:2015A0004B4C01AD4B4F4FF00A094FF04008A4F58056816841F002018160816801F0020129
:2015C0000191019950F8181C41F0020140F8181C50F8181C21F0020140F8181C016841F02D
:2015E00002010160016801F0020101910199016841F002010160016801F002010191019977
:20160000016841F020010160016801F0200101910199016841F020010160016801F0200170
:2016200001910199016841F020010160016801F0200101910199016841F020010160006837
:20164000294600F0200001900198CDF81490CDF8048003200490012003900220029030469A
:20166000B8470020039029464FF0090ACDF814A0042001903046B8474FF480700190294621
:20168000CDF814902046B8474FF4007001902946CDF814902046B847802001902946CDF896
:2016A00014A02046B84720462946CDF814A0CDF80480B8475C200F210022FFF71BFC5C2024
:2016C000FFF70AFC06B0BDE8F08700BF30380240001402406D0C00082DE9FC411546884680
:2016E0000446FFF785FB27680646B86994F84010012902D10220BDE8FC81012184F8401023
:2017000094F8411001292AD1B8F1000F4FF00001616426D0222184F841100122396901310D
:20172000A163396901316163796962F39B617961C4F83080B861A06BC8B120460621012247
:201740003346009500F0E4FDF8B997F82000216B4A1C22630870A06B0138A063EBE7022020
:2017600016E0606C40F008006064012010E020460221012233460095022500F0C9FD20B92A
:201780002068C5602046FFF717FC012184F84110002184F84010BDE8FC817047704770470A
:2017A0002DE9FC41154688460446FFF721FB0646276894F84000012802D10220BDE8FC816A
:2017C000012084F8400094F84100012828D1B8F1000F4FF00000606424D0122084F841009F
:2017E00038690130E06238690130A062C4F82480786920F040607861E06AC8B120460421E9
:2018000001223346009500F083FDF8B9606A411C6162007887F82000E06A0138E062EBE7DE
:20182000022016E0606C40F008006064012010E020460221012233460095022500F068FD81
:2018400020B92068C5602046FFF7B6FB012184F84110002184F84010BDE8FC817047000040
:201860002DE9F04100285CD0534B04460D46D3F8000400F00F0088420CD2D3F8000420F03D
:201880000F002843C3F80004D3F8000400F00F00A84246D12068810705D5A1689A6822F039
:2018A000F00211439960C00735D1D3F8000400F00F00A8420CD9D3F8000420F00F00284326
:2018C000C3F80004D3F8000400F00F00A84228D12068410705D5E1689A6822F4E052114307
:2018E0009960000706D52069996821F4604141EAC00098601C4600F069F8A1681C4AC1F314
:201900000311515CC840304908600F20FFF7BCFA0020BDE8F0816068012805D11968890338
:201920000AD40120BDE8F0811968022802D18901F7D501E08907F4D59968984621F0030190
:2019400008439860FFF754FA064641F288376068D8F80810434601F00C01B1EB800FA4D0EC
:20196000FFF746FA801BB842F1D90320BDE8F08128270008E648114B016841F0810101603B
:201980000021816002681A40026041600C4B42681A434260C0F884100A4BD0F884201A4314
:2019A000C0F88420026822F480220260C160064818490160704700BF00380240FFFFF6FA38
:2019C0001030002400300020000000201049486800F00C020F48082A03D0042A17D10E4864
:2019E00070470A680B685B020B4B58BF034602F03F000A68B3FBF0F0C2F3881209685043B4
:201A00000222C1F3014102EB4101B0FBF1F07047043802400024F40000127A002DE9FC41C5
:201A2000002854D004460078B94EC00724D0B06800F00C0004281AD0B06800F00C00082868
:201A400002D17068400212D46068002800F0F080B0F5803F07D03168B0F5A02F40F01C814E
:201A600041F480203060306840F480301AE13068800301D5606850B32078800718D5B068AA
:201A800010F00C0F07D0B06800F00C00082842D1706840023FD43068800702D5E068012869
:201AA00015D12069316821F0F80141EAC0003060207800070ED4207840071DD4A769002F09
:201AC00000F02381B06800F00C00082869D10120BDE8FC81706F616981B340F001007067CC
:201AE000FFF786F90546706F8007E4D4FFF780F9401B0228F7D9E2E0306CC0002DD4306C89
:201B00004FF0010840F080503064306C00F080500190019823E03068E168002960D040F0F6
:201B200001003060FFF764F9054630688007B8D4FFF75EF9401B0228F7D9C0E020F0010078
:201B40007067FFF755F90546706F8007B3D5FFF74FF9401B0228F7D9B1E04FF000086D4F0A
:201B60003868C0050FD4386840F480703860FFF73FF905463868C00505D4FFF739F9401B87
:201B80006428F7D99BE0A068D8B3012805D0316F052863D141F004003067306F40F0010040
:201BA00062E0306820F080703060FFF721F90546022F0AD13068800140F18480FFF718F9FF
:201BC000411B03200229F5D99DE03068800140F19C80FFF70DF9411B03200329F5D392E0C9
:201BE00020F001003060FFF703F90546306880077FF55EAFFFF7FCF8411B03200229F5D905
:201C000081E0306F20F001003067306F20F004003067FFF7EDF8054641F28837306F800794
:201C200031D5FFF7E5F8411B0320B942F6D96AE0306820F480303060306820F48020306070
:201C4000FFF7D6F80546306880037FF515AFFFF7CFF8411B03206429F5D954E021F0010045
:201C60003067306F20F004003067FFF7C1F8054641F28837306F800705D4FFF7B9F8401B96
:201C8000B842F7D91BE0B8F1000F3FF417AF306C20F08050306411E721F4803030603068D9
:201CA00020F480203060FFF7A3F80546306880033FF5E2AEFFF79CF8401B6428F6D90320C2
:201CC000BDE8FC811C341FCC0843D90340EA82104FF6FF72914340EA0460A1F5803108431A
:201CE00040F000507060306840F080703060FFF77FF804463068800107D4FFF779F8011B1E
:201D000003200229F6D9BDE8FC810020BDE8FC810038024000700040411E0020B0EB116F7E
:201D200001D001207047044AF023516003490B70906007211160704710E000E023ED00E021
:201D400000F056B980688968002381EA0002B3EB126F01D00120704721F07F4120F07F40B3
:201D6000884201D1022070474FF0000088BF03207047000010B5084C206A20F48050206285
:201D80001548FEF737FD206840F480502060206820F48050206010BD10380240E0B50D4983
:201DA0000322086840F4805008600B4802620022C0E905228280A1F503620260096801F4B4
:201DC000805101910199FEF72FFD00B98CBD00F00FF900BF303802401001002080B50848CC
:201DE0000849042240F8041F40F6FF71C0E90121C160FFF701F800B980BD00F0F9F800BFFA
:201E00005C00002000300040F8B5774F774C482100263D46201D05F81C6BFEF70AFA284666
:201E20003821FEF706FA381D1821FEF702FA354820602046FFF7BBF94FF48070172110222B
:201E400004230225C4E90153C4E90321C4E90506C4E907662046FFF7C3FA20688168890677
:201E6000FCD442F26611416100218161C1610161BFF34F8F206881688906FCD442F2991180
:201E8000416100218161C1610161BFF34F8F206881688906FCD442F2662141610021816159
:201EA000C1610161BFF34F8F206881688906FCD442F29921416100218161C1610161BFF375
:201EC0004F8F206881688906FCD442F26631416100218161C1610161BFF34F8F206881685F
:201EE0008906FCD442F29931416100218161C161016141F28830BFF34F8FBDE8F84000F014
:201F00004DB800BF001000A000F072B87047F0B585B00D4606460020049000900221144642
:201F200003912846FEF7BAFA074601906019FEF7B5FAC01B01300290FEF71CFE684604A9F3
:201F4000FEF786FD08B1049818E00027A7420AD2F259E91902200023FEF7C8FD0437002821
:201F6000F4D001200AE0FEF7B9FD304629462246FEF76AF90490002818BF0120C0B205B067
:201F8000F0BD0000E148FFF731B900BF80B51421FEF74FF980BDFEF75DBF7047B0B5DA4A97
:201FA000034600204FF080714FF48074102542F8040FC2E91100D064C2E90B04C2E90D006D
:201FC000D1630121C2E90115C2E9031005204FF480045461114641F8180FCC48FFF756F87C
:201FE000002818BF0120B0BD0800002034010020FEF7E8FC8E480430FEF725FF00F0FEFAF3
:2020000060270000FFFFFFFF01072235000000082DE9F0414B6AB2F1406F18BF002B03D0B3
:2020200004688D6A013D25618C690D6A7CB3002D49D0D0F800C0CE698F68D1E904E82B43CE
:20204000002ECCF81C70D1E90B57486B43EA050343EA070340EA030040EA884040EA0E036D
:202060004BD044EA0200CC68B2F1406F40EA060040EA03000B6840EA040040EA0300CCF8A0
:20208000140072D04868CCF81800BDE8F081EDB3006801F12C07CC698E68D1E904CE2B43F6
:2020A000002CC661E0CF43EA050343EA060343EA070343EA8E4343EA0C0341D01443234374
:2020C000CC68234334E0D1E90B76D1F814C04D6BD1F81CE03B43BEF1000F43EA060343EA5E
:2020E000050343EA8C432ED01443CD6844EA0E0423430C682B43234319E044EA02000968CA
:2021000018430843CCF81400BDE8F081CC69FCB11343D1E90B674D69D1F80CC023434C6B5F
:2021200033433B43234343EA854343EA0C030068B2F1406F436118D049688161BDE8F08125
:2021400043EA020110E0224309681A4311430AE05BB11A43D1E90B454B69496B22432A4341
:20216000114341EA834100684161BDE8F081806B00218163C16290F8411008290BD100689B
:202180000221C160016841F400310160016841F0020101607047012180F84110FFF723B85A
:2021A0002DE9F04F8FB00C464FF6FF714FF400594FF0000A1C4DDFF83CB301AEDFF86C80FE
:2021C00020EA0107A7422AD84FF480600890CDF81090D8200190CDE909AACDF838A0CDE99D
:2021E0000CAA4FF48070CDE906A007EA0500029000F00EF988B95846314641F28832FEF7E3
:2022000096FF50B940F6B830FFF7C8FE28B94046FEF719FE07F58037D4E7012000E0002044
:202220000FB0BDE8F08F00BF0000FF0F600000205C000020FEB5924C0020217800295DD151
:20224000214685224FF08073012541F81C2F4FF480724863C1E90502C1E90700C1E909356A
:20226000C1E90B00A34841F28832FEF760FF002843D1A0480DF10B0141F28832FFF72CFA46
:20228000D8BB00F0C5F8C0BB9DF80B100A2041F2883260F31F118DF80B108120214641F858
:2022A0001C0F9448FEF743FF38BB92480DF10B0141F28832FFF774FAF8B92146EB204FF452
:2022C00000524FF480734FF440654FF040760A2741F81C0F00200190C1E90B00486348604B
:2022E000C1E90320C1E90573C1E90750C1E9096080486A46FFF7D6F808B10120FEBD0120E9
:2023000020700020FEBD00BF08000020340100202DE9F843DDF82090984616460F46044667
:2023200009F1010520688068384018BF0120B04214D0002DF6D0B9F1000F05D0FEF758FD1C
:20234000A0EB08004845EDD9042084F84100606C40F0010060640120BDE8F8830020BDE8EF
:20236000F8832DE9F8430446C8B217460D465FFA82F8160AE0B1C0F5807946B328464946F5
:20238000224600F07FF8E8BBA7EB09004C444D44C7B2060A7EB328464FF48071224600F05B
:2023A00071F878BB013E04F5807405F58075F1E716B3D6B128464FF48071224600F062F8EA
:2023C00000BB013E04F5807405F58075F1E7C84512D928464946224600F054F809EB0500BD
:2023E000A8EB090104EB090209E0B8F1000F0CD02846414602E047B128463946224600F0B5
:2024000041F810B10120BDE8F8830020BDE8F883B0B51B4C0620002541F28832214641F89D
:202420001C0F4FF48070C1E90B554D63C1E905503048C1E907554D62FEF779FE0146012084
:2024400001B1B0BD052144F81C1F4FF080721023C4E909204FF48002022144E9051344E92C
:20246000030544F8042C234841F28833224642F8181D2146FEF70AFE002818BF0120B0BDC7
:202480000800002010B58EB014464FF44062079220F07040122200924FF4807206924FF4A3
:2024A000005203924FF04072099200220892CDE90C22CDE90A1205920190FFF7A9FF68B950
:2024C0000C48694641F28832FEF731FE30B90948214641F28832FFF763F910B101200EB068
:2024E00010BD41F28830FFF759FD002818BF0120F5E700BF340100201CB5044600680949F3
:202500000840B0F1005F0BD1FEF75CFA60680190054801990160216881F3088800688047EF
:202520001CBD00BF0000FC2F0C01002080B592B0C8210220CDE90B000A91042109914FF4CB
:202540008001CDE907014FF4803002900120019001A8FFF763FAA8B9FEF7F8FC90B94FF433
:202560008050119006214FF4A050109000200F9002200E900F200D900DA8FFF771F908B9CF
:2025800012B080BDFFF734FD10B50E480F4CD0F8801041F47001C0F880100B490A6842F061
:2025A00001020A6000228A600B6823400B60084B4B600B6823F480230B60CA604FF0006101
:2025C000016010BD08ED00E000380240FFFFF6FE10300024FFF70CBD10B500F00F03064C50
:2025E000044AB0F1FF3F2344C8BF83180801187010BD00BF00E400E014ED00E00648BFF363
:202600004F8F064A016801F4E06111430160BFF34F8F00BFFDE700BF0CED00E00400FA056A
:20262000FDF734FEFEF71EFCFFF780FFFFF7D6FBFFF7B4FBFFF7E8FBFFF7FCFD304C04F14B
:2026400014063046FFF7A2FC04F128073846FFF79DFC2C4D05F56020A0632B486062804634
:202660003046FDF7FBFF20703846FDF7F7FF607030463946FFF766FBE07090B1207898B36E
:2026800004F13C063046FFF781FC3046E564FDF7E5FFA07008B3607820BBA26AD4E90D101F
:2026A0001EE06269606A2946FDF79FFE30BBFFF7ABFBFFF7BFFD251D2846FEF7C4FBA26ADE
:2026C000D4E90D10FFF723FCC0B9FFF79DFBFFF7B1FD2846FEF7B7FB04E0E26BD4E912103B
:2026E000FFF715FC207810B9206AFFF705FF4046FFF702FF201DFEF7A6FBFEE7FFF778FC4F
:202700005C0000200000E2900000010802E008C8121F08C1002AFAD17047002001E001C1A7
:20272000121F002AFBD17047000000000000000001020304060708095827000800000020EC
:20274000080000000C2700086027000808000020982100001A2700080024F4000000000065
:04000005000001C92D
:00000001FF
